{"abi":[{"anonymous":false,"inputs":[{"indexed":true,"internalType":"uint256","name":"date","type":"uint256"},{"indexed":false,"internalType":"address","name":"campaign","type":"address"}],"name":"campaignInfo","type":"event"},{"inputs":[{"internalType":"uint256","name":"","type":"uint256"}],"name":"campaigns","outputs":[{"internalType":"address","name":"","type":"address"}],"stateMutability":"view","type":"function"},{"inputs":[{"internalType":"uint256","name":"minimum","type":"uint256"}],"name":"createCampaign","outputs":[],"stateMutability":"nonpayable","type":"function"},{"inputs":[{"internalType":"address","name":"camp","type":"address"}],"name":"emitCampaign","outputs":[],"stateMutability":"nonpayable","type":"function"},{"inputs":[],"name":"getCampaigns","outputs":[{"internalType":"address[]","name":"","type":"address[]"}],"stateMutability":"view","type":"function"}],"devdoc":{"kind":"dev","methods":{},"version":1},"evm":{"assembly":"    /* \"Campaign.sol\":66:676  contract Factory{... */\n  mstore(0x40, 0x80)\n  callvalue\n  dup1\n  iszero\n  tag_1\n  jumpi\n  0x00\n  dup1\n  revert\ntag_1:\n  pop\n  dataSize(sub_0)\n  dup1\n  dataOffset(sub_0)\n  0x00\n  codecopy\n  0x00\n  return\nstop\n\nsub_0: assembly {\n        /* \"Campaign.sol\":66:676  contract Factory{... */\n      mstore(0x40, 0x80)\n      callvalue\n      dup1\n      iszero\n      tag_1\n      jumpi\n      0x00\n      dup1\n      revert\n    tag_1:\n      pop\n      jumpi(tag_2, lt(calldatasize, 0x04))\n      shr(0xe0, calldataload(0x00))\n      dup1\n      0x141961bc\n      eq\n      tag_3\n      jumpi\n      dup1\n      0x805ba43e\n      eq\n      tag_4\n      jumpi\n      dup1\n      0xa3303a75\n      eq\n      tag_5\n      jumpi\n      dup1\n      0xa6b03633\n      eq\n      tag_6\n      jumpi\n    tag_2:\n      0x00\n      dup1\n      revert\n        /* \"Campaign.sol\":89:115  address[] public campaigns */\n    tag_3:\n      tag_7\n      tag_8\n      calldatasize\n      0x04\n      tag_9\n      jump\t// in\n    tag_8:\n      tag_10\n      jump\t// in\n    tag_7:\n      mload(0x40)\n      sub(shl(0xa0, 0x01), 0x01)\n        /* \"#utility.yul\":363:395   */\n      swap1\n      swap2\n      and\n        /* \"#utility.yul\":345:396   */\n      dup2\n      mstore\n        /* \"#utility.yul\":333:335   */\n      0x20\n        /* \"#utility.yul\":318:336   */\n      add\n        /* \"Campaign.sol\":89:115  address[] public campaigns */\n    tag_11:\n      mload(0x40)\n      dup1\n      swap2\n      sub\n      swap1\n      return\n        /* \"Campaign.sol\":211:314  function emitCampaign (address camp) external {... */\n    tag_4:\n      tag_13\n      tag_14\n      calldatasize\n      0x04\n      tag_15\n      jump\t// in\n    tag_14:\n      tag_16\n      jump\t// in\n    tag_13:\n      stop\n        /* \"Campaign.sol\":320:572  function createCampaign(uint minimum) public {... */\n    tag_5:\n      tag_13\n      tag_18\n      calldatasize\n      0x04\n      tag_9\n      jump\t// in\n    tag_18:\n      tag_19\n      jump\t// in\n        /* \"Campaign.sol\":578:673  function getCampaigns() public view returns (address[] memory){... */\n    tag_6:\n      tag_20\n      tag_21\n      jump\t// in\n    tag_20:\n      mload(0x40)\n      tag_11\n      swap2\n      swap1\n      tag_23\n      jump\t// in\n        /* \"Campaign.sol\":89:115  address[] public campaigns */\n    tag_10:\n      0x00\n      dup2\n      dup2\n      sload\n      dup2\n      lt\n      tag_24\n      jumpi\n      0x00\n      dup1\n      revert\n    tag_24:\n      0x00\n      swap2\n      dup3\n      mstore\n      0x20\n      swap1\n      swap2\n      keccak256\n      add\n      sload\n      sub(shl(0xa0, 0x01), 0x01)\n      and\n      swap1\n      pop\n      dup2\n      jump\t// out\n        /* \"Campaign.sol\":211:314  function emitCampaign (address camp) external {... */\n    tag_16:\n        /* \"Campaign.sol\":272:307  campaignInfo(block.timestamp, camp) */\n      mload(0x40)\n      sub(shl(0xa0, 0x01), 0x01)\n        /* \"#utility.yul\":363:395   */\n      dup3\n      and\n        /* \"#utility.yul\":345:396   */\n      dup2\n      mstore\n        /* \"Campaign.sol\":285:300  block.timestamp */\n      timestamp\n      swap1\n        /* \"Campaign.sol\":272:307  campaignInfo(block.timestamp, camp) */\n      0xbc2510bd36a6658be7210d767a949e618e367a8023527321151113ce209c5e4a\n      swap1\n        /* \"#utility.yul\":333:335   */\n      0x20\n        /* \"#utility.yul\":318:336   */\n      add\n        /* \"Campaign.sol\":272:307  campaignInfo(block.timestamp, camp) */\n      mload(0x40)\n      dup1\n      swap2\n      sub\n      swap1\n      log2\n        /* \"Campaign.sol\":211:314  function emitCampaign (address camp) external {... */\n      pop\n      jump\t// out\n        /* \"Campaign.sol\":320:572  function createCampaign(uint minimum) public {... */\n    tag_19:\n        /* \"Campaign.sol\":384:403  address newCampaign */\n      0x00\n        /* \"Campaign.sol\":428:435  minimum */\n      dup2\n        /* \"Campaign.sol\":437:447  msg.sender */\n      caller\n        /* \"Campaign.sol\":415:448  new Campaign(minimum, msg.sender) */\n      mload(0x40)\n      tag_29\n      swap1\n      tag_30\n      jump\t// in\n    tag_29:\n        /* \"#utility.yul\":1535:1560   */\n      swap2\n      dup3\n      mstore\n      sub(shl(0xa0, 0x01), 0x01)\n        /* \"#utility.yul\":1596:1628   */\n      and\n        /* \"#utility.yul\":1591:1593   */\n      0x20\n        /* \"#utility.yul\":1576:1594   */\n      dup3\n      add\n        /* \"#utility.yul\":1569:1629   */\n      mstore\n        /* \"#utility.yul\":1523:1525   */\n      0x40\n        /* \"#utility.yul\":1508:1526   */\n      add\n        /* \"Campaign.sol\":415:448  new Campaign(minimum, msg.sender) */\n      mload(0x40)\n      dup1\n      swap2\n      sub\n      swap1\n      0x00\n      create\n      dup1\n      iszero\n      dup1\n      iszero\n      tag_33\n      jumpi\n      returndatasize\n      0x00\n      dup1\n      returndatacopy\n      revert(0x00, returndatasize)\n    tag_33:\n      pop\n        /* \"Campaign.sol\":503:512  campaigns */\n      0x00\n        /* \"Campaign.sol\":503:530  campaigns.push(newCampaign) */\n      dup1\n      sload\n      0x01\n      dup2\n      add\n      dup3\n      sstore\n      swap1\n      dup1\n      mstore\n      0x290decd9548b62a8d60345a988386fc84ba6bc95484008f6362f93160ef3e563\n      add\n      dup1\n      sload\n      not(sub(shl(0xa0, 0x01), 0x01))\n      and\n      sub(shl(0xa0, 0x01), 0x01)\n      swap3\n      swap1\n      swap3\n      and\n      swap2\n      swap1\n      swap2\n      or\n      swap1\n      sstore\n      pop\n      pop\n        /* \"Campaign.sol\":320:572  function createCampaign(uint minimum) public {... */\n      jump\t// out\n        /* \"Campaign.sol\":578:673  function getCampaigns() public view returns (address[] memory){... */\n    tag_21:\n        /* \"Campaign.sol\":623:639  address[] memory */\n      0x60\n        /* \"Campaign.sol\":657:666  campaigns */\n      0x00\n        /* \"Campaign.sol\":650:666  return campaigns */\n      dup1\n      sload\n      dup1\n      0x20\n      mul\n      0x20\n      add\n      mload(0x40)\n      swap1\n      dup2\n      add\n      0x40\n      mstore\n      dup1\n      swap3\n      swap2\n      swap1\n      dup2\n      dup2\n      mstore\n      0x20\n      add\n      dup3\n      dup1\n      sload\n      dup1\n      iszero\n      tag_36\n      jumpi\n      0x20\n      mul\n      dup3\n      add\n      swap2\n      swap1\n      0x00\n      mstore\n      keccak256(0x00, 0x20)\n      swap1\n    tag_37:\n      dup2\n      sload\n      sub(shl(0xa0, 0x01), 0x01)\n      and\n      dup2\n      mstore\n      0x01\n      swap1\n      swap2\n      add\n      swap1\n      0x20\n      add\n      dup1\n      dup4\n      gt\n      tag_37\n      jumpi\n    tag_36:\n      pop\n      pop\n      pop\n      pop\n      pop\n      swap1\n      pop\n        /* \"Campaign.sol\":578:673  function getCampaigns() public view returns (address[] memory){... */\n      swap1\n      jump\t// out\n    tag_30:\n      dataSize(sub_0)\n      dup1\n      dataOffset(sub_0)\n      dup4\n      codecopy\n      add\n      swap1\n      jump\t// out\n        /* \"#utility.yul\":14:194   */\n    tag_9:\n        /* \"#utility.yul\":73:79   */\n      0x00\n        /* \"#utility.yul\":126:128   */\n      0x20\n        /* \"#utility.yul\":114:123   */\n      dup3\n        /* \"#utility.yul\":105:112   */\n      dup5\n        /* \"#utility.yul\":101:124   */\n      sub\n        /* \"#utility.yul\":97:129   */\n      slt\n        /* \"#utility.yul\":94:146   */\n      iszero\n      tag_40\n      jumpi\n        /* \"#utility.yul\":142:143   */\n      0x00\n        /* \"#utility.yul\":139:140   */\n      dup1\n        /* \"#utility.yul\":132:144   */\n      revert\n        /* \"#utility.yul\":94:146   */\n    tag_40:\n      pop\n        /* \"#utility.yul\":165:188   */\n      calldataload\n      swap2\n        /* \"#utility.yul\":14:194   */\n      swap1\n      pop\n      jump\t// out\n        /* \"#utility.yul\":407:693   */\n    tag_15:\n        /* \"#utility.yul\":466:472   */\n      0x00\n        /* \"#utility.yul\":519:521   */\n      0x20\n        /* \"#utility.yul\":507:516   */\n      dup3\n        /* \"#utility.yul\":498:505   */\n      dup5\n        /* \"#utility.yul\":494:517   */\n      sub\n        /* \"#utility.yul\":490:522   */\n      slt\n        /* \"#utility.yul\":487:539   */\n      iszero\n      tag_43\n      jumpi\n        /* \"#utility.yul\":535:536   */\n      0x00\n        /* \"#utility.yul\":532:533   */\n      dup1\n        /* \"#utility.yul\":525:537   */\n      revert\n        /* \"#utility.yul\":487:539   */\n    tag_43:\n        /* \"#utility.yul\":561:584   */\n      dup2\n      calldataload\n      sub(shl(0xa0, 0x01), 0x01)\n        /* \"#utility.yul\":613:644   */\n      dup2\n      and\n        /* \"#utility.yul\":603:645   */\n      dup2\n      eq\n        /* \"#utility.yul\":593:663   */\n      tag_44\n      jumpi\n        /* \"#utility.yul\":659:660   */\n      0x00\n        /* \"#utility.yul\":656:657   */\n      dup1\n        /* \"#utility.yul\":649:661   */\n      revert\n        /* \"#utility.yul\":593:663   */\n    tag_44:\n        /* \"#utility.yul\":682:687   */\n      swap4\n        /* \"#utility.yul\":407:693   */\n      swap3\n      pop\n      pop\n      pop\n      jump\t// out\n        /* \"#utility.yul\":698:1356   */\n    tag_23:\n        /* \"#utility.yul\":869:871   */\n      0x20\n        /* \"#utility.yul\":921:942   */\n      dup1\n      dup3\n      mstore\n        /* \"#utility.yul\":991:1004   */\n      dup3\n      mload\n        /* \"#utility.yul\":894:912   */\n      dup3\n      dup3\n      add\n        /* \"#utility.yul\":1013:1035   */\n      dup2\n      swap1\n      mstore\n        /* \"#utility.yul\":840:844   */\n      0x00\n      swap2\n        /* \"#utility.yul\":869:871   */\n      swap1\n        /* \"#utility.yul\":1092:1107   */\n      dup5\n      dup3\n      add\n      swap1\n        /* \"#utility.yul\":1066:1068   */\n      0x40\n        /* \"#utility.yul\":1051:1069   */\n      dup6\n      add\n      swap1\n        /* \"#utility.yul\":840:844   */\n      dup5\n        /* \"#utility.yul\":1135:1330   */\n    tag_46:\n        /* \"#utility.yul\":1149:1155   */\n      dup2\n        /* \"#utility.yul\":1146:1147   */\n      dup2\n        /* \"#utility.yul\":1143:1156   */\n      lt\n        /* \"#utility.yul\":1135:1330   */\n      iszero\n      tag_48\n      jumpi\n        /* \"#utility.yul\":1214:1227   */\n      dup4\n      mload\n      sub(shl(0xa0, 0x01), 0x01)\n        /* \"#utility.yul\":1210:1249   */\n      and\n        /* \"#utility.yul\":1198:1250   */\n      dup4\n      mstore\n        /* \"#utility.yul\":1305:1320   */\n      swap3\n      dup5\n      add\n      swap3\n        /* \"#utility.yul\":1270:1282   */\n      swap2\n      dup5\n      add\n      swap2\n        /* \"#utility.yul\":1246:1247   */\n      0x01\n        /* \"#utility.yul\":1164:1173   */\n      add\n        /* \"#utility.yul\":1135:1330   */\n      jump(tag_46)\n    tag_48:\n      pop\n        /* \"#utility.yul\":1347:1350   */\n      swap1\n      swap7\n        /* \"#utility.yul\":698:1356   */\n      swap6\n      pop\n      pop\n      pop\n      pop\n      pop\n      pop\n      jump\t// out\n    stop\n\n    sub_0: assembly {\n            /* \"Campaign.sol\":678:3340  contract Campaign {... */\n          mstore(0x40, 0x80)\n            /* \"Campaign.sol\":1239:1355  constructor(uint minimum, address creator) {... */\n          callvalue\n          dup1\n          iszero\n          tag_1\n          jumpi\n          0x00\n          dup1\n          revert\n        tag_1:\n          pop\n          mload(0x40)\n          sub(codesize, bytecodeSize)\n          dup1\n          bytecodeSize\n          dup4\n          codecopy\n          dup2\n          add\n          0x40\n          dup2\n          swap1\n          mstore\n          tag_2\n          swap2\n          tag_3\n          jump\t// in\n        tag_2:\n            /* \"Campaign.sol\":1292:1299  manager */\n          0x00\n            /* \"Campaign.sol\":1292:1309  manager = creator */\n          dup1\n          sload\n          not(sub(shl(0xa0, 0x01), 0x01))\n          and\n          sub(shl(0xa0, 0x01), 0x01)\n          swap3\n          swap1\n          swap3\n          and\n          swap2\n          swap1\n          swap2\n          or\n          swap1\n          sstore\n          0x01\n            /* \"Campaign.sol\":1319:1348  minimumContribution = minimum */\n          sstore\n            /* \"Campaign.sol\":678:3340  contract Campaign {... */\n          jump(tag_7)\n            /* \"#utility.yul\":14:365   */\n        tag_3:\n            /* \"#utility.yul\":93:99   */\n          0x00\n            /* \"#utility.yul\":101:107   */\n          dup1\n            /* \"#utility.yul\":154:156   */\n          0x40\n            /* \"#utility.yul\":142:151   */\n          dup4\n            /* \"#utility.yul\":133:140   */\n          dup6\n            /* \"#utility.yul\":129:152   */\n          sub\n            /* \"#utility.yul\":125:157   */\n          slt\n            /* \"#utility.yul\":122:174   */\n          iszero\n          tag_9\n          jumpi\n            /* \"#utility.yul\":170:171   */\n          0x00\n            /* \"#utility.yul\":167:168   */\n          dup1\n            /* \"#utility.yul\":160:172   */\n          revert\n            /* \"#utility.yul\":122:174   */\n        tag_9:\n            /* \"#utility.yul\":193:209   */\n          dup3\n          mload\n            /* \"#utility.yul\":252:254   */\n          0x20\n            /* \"#utility.yul\":237:255   */\n          dup5\n          add\n            /* \"#utility.yul\":231:256   */\n          mload\n            /* \"#utility.yul\":193:209   */\n          swap1\n          swap3\n          pop\n          sub(shl(0xa0, 0x01), 0x01)\n            /* \"#utility.yul\":285:316   */\n          dup2\n          and\n            /* \"#utility.yul\":275:317   */\n          dup2\n          eq\n            /* \"#utility.yul\":265:335   */\n          tag_10\n          jumpi\n            /* \"#utility.yul\":331:332   */\n          0x00\n            /* \"#utility.yul\":328:329   */\n          dup1\n            /* \"#utility.yul\":321:333   */\n          revert\n            /* \"#utility.yul\":265:335   */\n        tag_10:\n            /* \"#utility.yul\":354:359   */\n          dup1\n            /* \"#utility.yul\":344:359   */\n          swap2\n          pop\n          pop\n            /* \"#utility.yul\":14:365   */\n          swap3\n          pop\n          swap3\n          swap1\n          pop\n          jump\t// out\n        tag_7:\n            /* \"Campaign.sol\":678:3340  contract Campaign {... */\n          dataSize(sub_0)\n          dup1\n          dataOffset(sub_0)\n          0x00\n          codecopy\n          0x00\n          return\n        stop\n\n        sub_0: assembly {\n                /* \"Campaign.sol\":678:3340  contract Campaign {... */\n              mstore(0x40, 0x80)\n              jumpi(tag_1, lt(calldatasize, 0x04))\n              shr(0xe0, calldataload(0x00))\n              dup1\n              0x82fde093\n              gt\n              tag_13\n              jumpi\n              dup1\n              0x82fde093\n              eq\n              tag_7\n              jumpi\n              dup1\n              0x8a9cfd55\n              eq\n              tag_8\n              jumpi\n              dup1\n              0x937e09b1\n              eq\n              tag_9\n              jumpi\n              dup1\n              0xcc1e0359\n              eq\n              tag_10\n              jumpi\n              dup1\n              0xd7bb99ba\n              eq\n              tag_11\n              jumpi\n              dup1\n              0xd7d1bbdb\n              eq\n              tag_12\n              jumpi\n              0x00\n              dup1\n              revert\n            tag_13:\n              dup1\n              0x0a144391\n              eq\n              tag_2\n              jumpi\n              dup1\n              0x3410452a\n              eq\n              tag_3\n              jumpi\n              dup1\n              0x4051ddac\n              eq\n              tag_4\n              jumpi\n              dup1\n              0x481c6a75\n              eq\n              tag_5\n              jumpi\n              dup1\n              0x81d12c58\n              eq\n              tag_6\n              jumpi\n            tag_1:\n              0x00\n              dup1\n              revert\n                /* \"Campaign.sol\":1002:1043  mapping(address => bool) public approvers */\n            tag_2:\n              callvalue\n              dup1\n              iszero\n              tag_14\n              jumpi\n              0x00\n              dup1\n              revert\n            tag_14:\n              pop\n              tag_15\n              tag_16\n              calldatasize\n              0x04\n              tag_17\n              jump\t// in\n            tag_16:\n              mstore(0x20, 0x02)\n              0x00\n              swap1\n              dup2\n              mstore\n              0x40\n              swap1\n              keccak256\n              sload\n              0xff\n              and\n              dup2\n              jump\n            tag_15:\n              mload(0x40)\n                /* \"#utility.yul\":663:677   */\n              swap1\n              iszero\n                /* \"#utility.yul\":656:678   */\n              iszero\n                /* \"#utility.yul\":638:679   */\n              dup2\n              mstore\n                /* \"#utility.yul\":626:628   */\n              0x20\n                /* \"#utility.yul\":611:629   */\n              add\n                /* \"Campaign.sol\":1002:1043  mapping(address => bool) public approvers */\n            tag_19:\n              mload(0x40)\n              dup1\n              swap2\n              sub\n              swap1\n              return\n                /* \"Campaign.sol\":3244:3337  function getRequestsCount() public view returns (uint){... */\n            tag_3:\n              callvalue\n              dup1\n              iszero\n              tag_21\n              jumpi\n              0x00\n              dup1\n              revert\n            tag_21:\n              pop\n                /* \"Campaign.sol\":3315:3323  requests */\n              0x05\n                /* \"Campaign.sol\":3315:3330  requests.length */\n              sload\n                /* \"Campaign.sol\":3244:3337  function getRequestsCount() public view returns (uint){... */\n            tag_22:\n              mload(0x40)\n                /* \"#utility.yul\":836:861   */\n              swap1\n              dup2\n              mstore\n                /* \"#utility.yul\":824:826   */\n              0x20\n                /* \"#utility.yul\":809:827   */\n              add\n                /* \"Campaign.sol\":3244:3337  function getRequestsCount() public view returns (uint){... */\n              tag_19\n                /* \"#utility.yul\":690:867   */\n              jump\n                /* \"Campaign.sol\":2978:3238  function getSummary() public view returns (uint, uint, uint, uint, address) {... */\n            tag_4:\n              callvalue\n              dup1\n              iszero\n              tag_26\n              jumpi\n              0x00\n              dup1\n              revert\n            tag_26:\n              pop\n                /* \"Campaign.sol\":3087:3106  minimumContribution */\n              sload(0x01)\n                /* \"Campaign.sol\":3155:3163  requests */\n              0x05\n                /* \"Campaign.sol\":3155:3170  requests.length */\n              sload\n                /* \"Campaign.sol\":3184:3198  approversCount */\n              sload(0x03)\n                /* \"Campaign.sol\":3021:3025  uint */\n              0x00\n                /* \"Campaign.sol\":3212:3219  manager */\n              sload\n                /* \"Campaign.sol\":2978:3238  function getSummary() public view returns (uint, uint, uint, uint, address) {... */\n              0x40\n              dup1\n              mload\n                /* \"#utility.yul\":1240:1265   */\n              swap5\n              dup6\n              mstore\n                /* \"Campaign.sol\":3120:3141  address(this).balance */\n              selfbalance\n                /* \"#utility.yul\":1296:1298   */\n              0x20\n                /* \"#utility.yul\":1281:1299   */\n              dup7\n              add\n                /* \"#utility.yul\":1274:1308   */\n              mstore\n                /* \"#utility.yul\":1324:1342   */\n              dup5\n              add\n                /* \"#utility.yul\":1317:1351   */\n              swap3\n              swap1\n              swap3\n              mstore\n                /* \"#utility.yul\":1382:1384   */\n              0x60\n                /* \"#utility.yul\":1367:1385   */\n              dup4\n              add\n                /* \"#utility.yul\":1360:1394   */\n              mstore\n              sub(shl(0xa0, 0x01), 0x01)\n                /* \"Campaign.sol\":3212:3219  manager */\n              and\n                /* \"#utility.yul\":1425:1428   */\n              0x80\n                /* \"#utility.yul\":1410:1429   */\n              dup3\n              add\n                /* \"#utility.yul\":1403:1464   */\n              mstore\n                /* \"#utility.yul\":1227:1230   */\n              0xa0\n                /* \"#utility.yul\":1212:1231   */\n              add\n                /* \"Campaign.sol\":2978:3238  function getSummary() public view returns (uint, uint, uint, uint, address) {... */\n              tag_19\n                /* \"#utility.yul\":981:1470   */\n              jump\n                /* \"Campaign.sol\":937:959  address public manager */\n            tag_5:\n              callvalue\n              dup1\n              iszero\n              tag_31\n              jumpi\n              0x00\n              dup1\n              revert\n            tag_31:\n              pop\n              sload(0x00)\n              tag_32\n              swap1\n              sub(shl(0xa0, 0x01), 0x01)\n              and\n              dup2\n              jump\n            tag_32:\n              mload(0x40)\n              sub(shl(0xa0, 0x01), 0x01)\n                /* \"#utility.yul\":1639:1671   */\n              swap1\n              swap2\n              and\n                /* \"#utility.yul\":1621:1672   */\n              dup2\n              mstore\n                /* \"#utility.yul\":1609:1611   */\n              0x20\n                /* \"#utility.yul\":1594:1612   */\n              add\n                /* \"Campaign.sol\":937:959  address public manager */\n              tag_19\n                /* \"#utility.yul\":1475:1678   */\n              jump\n                /* \"Campaign.sol\":1103:1128  Request[] public requests */\n            tag_6:\n              callvalue\n              dup1\n              iszero\n              tag_36\n              jumpi\n              0x00\n              dup1\n              revert\n            tag_36:\n              pop\n              tag_37\n              tag_38\n              calldatasize\n              0x04\n              tag_39\n              jump\t// in\n            tag_38:\n              tag_40\n              jump\t// in\n            tag_37:\n              mload(0x40)\n              tag_19\n              swap6\n              swap5\n              swap4\n              swap3\n              swap2\n              swap1\n              tag_42\n              jump\t// in\n                /* \"Campaign.sol\":1049:1075  uint public approversCount */\n            tag_7:\n              callvalue\n              dup1\n              iszero\n              tag_43\n              jumpi\n              0x00\n              dup1\n              revert\n            tag_43:\n              pop\n              tag_22\n              sload(0x03)\n              dup2\n              jump\n                /* \"Campaign.sol\":1586:1956  function createRequest(string memory description, uint value, address payable recipient) public restricted() {... */\n            tag_8:\n              callvalue\n              dup1\n              iszero\n              tag_47\n              jumpi\n              0x00\n              dup1\n              revert\n            tag_47:\n              pop\n              tag_48\n              tag_49\n              calldatasize\n              0x04\n              tag_50\n              jump\t// in\n            tag_49:\n              tag_51\n              jump\t// in\n            tag_48:\n              stop\n                /* \"Campaign.sol\":965:996  uint public minimumContribution */\n            tag_9:\n              callvalue\n              dup1\n              iszero\n              tag_52\n              jumpi\n              0x00\n              dup1\n              revert\n            tag_52:\n              pop\n              tag_22\n              sload(0x01)\n              dup2\n              jump\n                /* \"Campaign.sol\":2435:2969  function completeRequest(uint index) public restricted() {... */\n            tag_10:\n              callvalue\n              dup1\n              iszero\n              tag_56\n              jumpi\n              0x00\n              dup1\n              revert\n            tag_56:\n              pop\n              tag_48\n              tag_58\n              calldatasize\n              0x04\n              tag_39\n              jump\t// in\n            tag_58:\n              tag_59\n              jump\t// in\n                /* \"Campaign.sol\":1361:1579  function contribute() public payable {... */\n            tag_11:\n              tag_48\n              tag_61\n              jump\t// in\n                /* \"Campaign.sol\":1962:2429  function approveRequest(uint index) public {... */\n            tag_12:\n              callvalue\n              dup1\n              iszero\n              tag_62\n              jumpi\n              0x00\n              dup1\n              revert\n            tag_62:\n              pop\n              tag_48\n              tag_64\n              calldatasize\n              0x04\n              tag_39\n              jump\t// in\n            tag_64:\n              tag_65\n              jump\t// in\n                /* \"Campaign.sol\":1103:1128  Request[] public requests */\n            tag_40:\n              0x05\n              dup2\n              dup2\n              sload\n              dup2\n              lt\n              tag_68\n              jumpi\n              0x00\n              dup1\n              revert\n            tag_68:\n              swap1\n              0x00\n              mstore\n              keccak256(0x00, 0x20)\n              swap1\n              0x05\n              mul\n              add\n              0x00\n              swap2\n              pop\n              swap1\n              pop\n              dup1\n              0x00\n              add\n              dup1\n              sload\n              tag_70\n              swap1\n              tag_71\n              jump\t// in\n            tag_70:\n              dup1\n              0x1f\n              add\n              0x20\n              dup1\n              swap2\n              div\n              mul\n              0x20\n              add\n              mload(0x40)\n              swap1\n              dup2\n              add\n              0x40\n              mstore\n              dup1\n              swap3\n              swap2\n              swap1\n              dup2\n              dup2\n              mstore\n              0x20\n              add\n              dup3\n              dup1\n              sload\n              tag_72\n              swap1\n              tag_71\n              jump\t// in\n            tag_72:\n              dup1\n              iszero\n              tag_73\n              jumpi\n              dup1\n              0x1f\n              lt\n              tag_74\n              jumpi\n              0x0100\n              dup1\n              dup4\n              sload\n              div\n              mul\n              dup4\n              mstore\n              swap2\n              0x20\n              add\n              swap2\n              jump(tag_73)\n            tag_74:\n              dup3\n              add\n              swap2\n              swap1\n              0x00\n              mstore\n              keccak256(0x00, 0x20)\n              swap1\n            tag_75:\n              dup2\n              sload\n              dup2\n              mstore\n              swap1\n              0x01\n              add\n              swap1\n              0x20\n              add\n              dup1\n              dup4\n              gt\n              tag_75\n              jumpi\n              dup3\n              swap1\n              sub\n              0x1f\n              and\n              dup3\n              add\n              swap2\n            tag_73:\n              pop\n              pop\n              pop\n              pop\n              0x01\n              dup4\n              add\n              sload\n              0x02\n              dup5\n              add\n              sload\n              0x03\n              swap1\n              swap5\n              add\n              sload\n              swap3\n              swap4\n              swap1\n              swap3\n              sub(shl(0xa0, 0x01), 0x01)\n              dup3\n              and\n              swap3\n              pop\n              shl(0xa0, 0x01)\n              swap1\n              swap2\n              div\n              0xff\n              and\n              swap1\n              dup6\n              jump\t// out\n                /* \"Campaign.sol\":1586:1956  function createRequest(string memory description, uint value, address payable recipient) public restricted() {... */\n            tag_51:\n                /* \"Campaign.sol\":1189:1196  manager */\n              and(sub(shl(0xa0, 0x01), 0x01), sload(0x00))\n                /* \"Campaign.sol\":1175:1185  msg.sender */\n              caller\n                /* \"Campaign.sol\":1175:1196  msg.sender == manager */\n              eq\n                /* \"Campaign.sol\":1167:1197  require(msg.sender == manager) */\n              tag_77\n              jumpi\n              0x00\n              dup1\n              revert\n            tag_77:\n                /* \"Campaign.sol\":1735:1743  requests */\n              0x05\n                /* \"Campaign.sol\":1735:1750  requests.push() */\n              dup1\n              sload\n              0x01\n              dup2\n              add\n              dup3\n              sstore\n                /* \"Campaign.sol\":1706:1732  Request storage newRequest */\n              0x00\n                /* \"Campaign.sol\":1735:1750  requests.push() */\n              dup3\n              swap1\n              mstore\n                /* \"Campaign.sol\":1761:1797  newRequest.description = description */\n              dup5\n              mload\n                /* \"Campaign.sol\":1735:1750  requests.push() */\n              swap2\n              mul\n              0x036b6384b5eca791c62761152d0c79bb0604c104a5fb6f4eb0703f3154bb3db0\n              add\n              swap1\n                /* \"Campaign.sol\":1761:1797  newRequest.description = description */\n              tag_80\n              swap1\n                /* \"Campaign.sol\":1735:1750  requests.push() */\n              dup3\n              swap1\n              0x20\n                /* \"Campaign.sol\":1761:1797  newRequest.description = description */\n              dup8\n              add\n              swap1\n              tag_81\n              jump\t// in\n            tag_80:\n              pop\n                /* \"Campaign.sol\":1807:1823  newRequest.value */\n              0x01\n              dup2\n              add\n                /* \"Campaign.sol\":1807:1831  newRequest.value = value */\n              swap3\n              swap1\n              swap3\n              sstore\n                /* \"Campaign.sol\":1841:1861  newRequest.recipient */\n              0x02\n              dup3\n              add\n                /* \"Campaign.sol\":1841:1873  newRequest.recipient = recipient */\n              dup1\n              sload\n              not(sub(shl(0xa8, 0x01), 0x01))\n                /* \"Campaign.sol\":1883:1910  newRequest.complete = false */\n              and\n              sub(shl(0xa0, 0x01), 0x01)\n                /* \"Campaign.sol\":1841:1873  newRequest.recipient = recipient */\n              swap1\n              swap3\n              and\n                /* \"Campaign.sol\":1883:1910  newRequest.complete = false */\n              swap2\n              swap1\n              swap2\n              or\n              swap1\n              sstore\n                /* \"Campaign.sol\":1841:1861  newRequest.recipient */\n              0x00\n                /* \"Campaign.sol\":1920:1944  newRequest.approvalCount */\n              0x03\n              swap1\n              swap2\n              add\n                /* \"Campaign.sol\":1920:1948  newRequest.approvalCount = 0 */\n              sstore\n              pop\n                /* \"Campaign.sol\":1586:1956  function createRequest(string memory description, uint value, address payable recipient) public restricted() {... */\n              jump\t// out\n                /* \"Campaign.sol\":2435:2969  function completeRequest(uint index) public restricted() {... */\n            tag_59:\n                /* \"Campaign.sol\":1189:1196  manager */\n              and(sub(shl(0xa0, 0x01), 0x01), sload(0x00))\n                /* \"Campaign.sol\":1175:1185  msg.sender */\n              caller\n                /* \"Campaign.sol\":1175:1196  msg.sender == manager */\n              eq\n                /* \"Campaign.sol\":1167:1197  require(msg.sender == manager) */\n              tag_83\n              jumpi\n              0x00\n              dup1\n              revert\n            tag_83:\n                /* \"Campaign.sol\":2503:2526  Request storage request */\n              0x00\n                /* \"Campaign.sol\":2529:2537  requests */\n              0x05\n                /* \"Campaign.sol\":2538:2543  index */\n              dup3\n                /* \"Campaign.sol\":2529:2544  requests[index] */\n              dup2\n              sload\n              dup2\n              lt\n              tag_86\n              jumpi\n              tag_86\n              tag_87\n              jump\t// in\n            tag_86:\n              swap1\n              0x00\n              mstore\n              keccak256(0x00, 0x20)\n              swap1\n              0x05\n              mul\n              add\n                /* \"Campaign.sol\":2503:2544  Request storage request = requests[index] */\n              swap1\n              pop\n                /* \"Campaign.sol\":2591:2598  request */\n              dup1\n                /* \"Campaign.sol\":2591:2607  request.complete */\n              0x02\n              add\n              0x14\n              swap1\n              sload\n              swap1\n              0x0100\n              exp\n              swap1\n              div\n              0xff\n              and\n                /* \"Campaign.sol\":2590:2607  !request.complete */\n              iszero\n                /* \"Campaign.sol\":2582:2608  require(!request.complete) */\n              tag_89\n              jumpi\n              0x00\n              dup1\n              revert\n            tag_89:\n                /* \"Campaign.sol\":2687:2695  uint avg */\n              0x00\n                /* \"Campaign.sol\":2715:2716  2 */\n              0x02\n                /* \"Campaign.sol\":2698:2712  approversCount */\n              sload(0x03)\n                /* \"Campaign.sol\":2698:2716  approversCount / 2 */\n              tag_90\n              swap2\n              swap1\n              tag_91\n              jump\t// in\n            tag_90:\n                /* \"Campaign.sol\":2687:2716  uint avg = approversCount / 2 */\n              swap1\n              pop\n                /* \"Campaign.sol\":2817:2820  avg */\n              dup1\n                /* \"Campaign.sol\":2793:2800  request */\n              dup3\n                /* \"Campaign.sol\":2793:2814  request.approvalCount */\n              0x03\n              add\n              sload\n                /* \"Campaign.sol\":2793:2820  request.approvalCount > avg */\n              gt\n                /* \"Campaign.sol\":2785:2821  require(request.approvalCount > avg) */\n              tag_92\n              jumpi\n              0x00\n              dup1\n              revert\n            tag_92:\n                /* \"Campaign.sol\":2832:2849  request.recipient */\n              0x02\n              dup3\n              add\n              sload\n              0x01\n                /* \"Campaign.sol\":2859:2872  request.value */\n              dup4\n              add\n              sload\n                /* \"Campaign.sol\":2832:2873  request.recipient.transfer(request.value) */\n              mload(0x40)\n              sub(shl(0xa0, 0x01), 0x01)\n                /* \"Campaign.sol\":2832:2849  request.recipient */\n              swap1\n              swap3\n              and\n              swap2\n                /* \"Campaign.sol\":2832:2873  request.recipient.transfer(request.value) */\n              dup2\n              iszero\n              0x08fc\n              mul\n              swap2\n                /* \"Campaign.sol\":2859:2872  request.value */\n              swap1\n                /* \"Campaign.sol\":2832:2849  request.recipient */\n              0x00\n                /* \"Campaign.sol\":2832:2873  request.recipient.transfer(request.value) */\n              dup2\n                /* \"Campaign.sol\":2832:2849  request.recipient */\n              dup2\n                /* \"Campaign.sol\":2832:2873  request.recipient.transfer(request.value) */\n              dup2\n                /* \"Campaign.sol\":2859:2872  request.value */\n              dup6\n                /* \"Campaign.sol\":2832:2849  request.recipient */\n              dup9\n                /* \"Campaign.sol\":2832:2873  request.recipient.transfer(request.value) */\n              dup9\n              call\n              swap4\n              pop\n              pop\n              pop\n              pop\n              iszero\n              dup1\n              iszero\n              tag_94\n              jumpi\n              returndatasize\n              0x00\n              dup1\n              returndatacopy\n              revert(0x00, returndatasize)\n            tag_94:\n              pop\n              pop\n                /* \"Campaign.sol\":2918:2934  request.complete */\n              0x02\n              add\n                /* \"Campaign.sol\":2918:2941  request.complete = true */\n              dup1\n              sload\n              not(shl(0xa0, 0xff))\n              and\n              shl(0xa0, 0x01)\n              or\n              swap1\n              sstore\n              pop\n                /* \"Campaign.sol\":2435:2969  function completeRequest(uint index) public restricted() {... */\n              jump\t// out\n                /* \"Campaign.sol\":1361:1579  function contribute() public payable {... */\n            tag_61:\n                /* \"Campaign.sol\":1428:1447  minimumContribution */\n              sload(0x01)\n                /* \"Campaign.sol\":1416:1425  msg.value */\n              callvalue\n                /* \"Campaign.sol\":1416:1447  msg.value > minimumContribution */\n              gt\n                /* \"Campaign.sol\":1408:1448  require(msg.value > minimumContribution) */\n              tag_96\n              jumpi\n              0x00\n              dup1\n              revert\n            tag_96:\n                /* \"Campaign.sol\":1476:1486  msg.sender */\n              caller\n                /* \"Campaign.sol\":1458:1488  approvers[payable(msg.sender)] */\n              0x00\n              swap1\n              dup2\n              mstore\n                /* \"Campaign.sol\":1458:1467  approvers */\n              0x02\n                /* \"Campaign.sol\":1458:1488  approvers[payable(msg.sender)] */\n              0x20\n              mstore\n              0x40\n              dup2\n              keccak256\n                /* \"Campaign.sol\":1458:1495  approvers[payable(msg.sender)] = true */\n              dup1\n              sload\n              not(0xff)\n              and\n                /* \"Campaign.sol\":1491:1495  true */\n              0x01\n                /* \"Campaign.sol\":1458:1495  approvers[payable(msg.sender)] = true */\n              or\n              swap1\n              sstore\n                /* \"Campaign.sol\":1505:1519  approversCount */\n              0x03\n                /* \"Campaign.sol\":1505:1521  approversCount++ */\n              dup1\n              sload\n              swap2\n              tag_97\n              dup4\n              tag_98\n              jump\t// in\n            tag_97:\n              swap2\n              swap1\n              pop\n              sstore\n              pop\n                /* \"Campaign.sol\":1361:1579  function contribute() public payable {... */\n              jump\t// out\n                /* \"Campaign.sol\":1962:2429  function approveRequest(uint index) public {... */\n            tag_65:\n                /* \"Campaign.sol\":2016:2039  Request storage request */\n              0x00\n                /* \"Campaign.sol\":2042:2050  requests */\n              0x05\n                /* \"Campaign.sol\":2051:2056  index */\n              dup3\n                /* \"Campaign.sol\":2042:2057  requests[index] */\n              dup2\n              sload\n              dup2\n              lt\n              tag_101\n              jumpi\n              tag_101\n              tag_87\n              jump\t// in\n            tag_101:\n              0x00\n              swap2\n              dup3\n              mstore\n              0x20\n              dup1\n              dup4\n              keccak256\n                /* \"Campaign.sol\":2113:2123  msg.sender */\n              caller\n                /* \"Campaign.sol\":2103:2124  approvers[msg.sender] */\n              dup5\n              mstore\n                /* \"Campaign.sol\":2103:2112  approvers */\n              0x02\n                /* \"Campaign.sol\":2103:2124  approvers[msg.sender] */\n              swap1\n              swap2\n              mstore\n              0x40\n              swap1\n              swap3\n              keccak256\n              sload\n                /* \"Campaign.sol\":2042:2057  requests[index] */\n              0x05\n              swap1\n              swap2\n              mul\n              swap1\n              swap2\n              add\n              swap2\n              pop\n                /* \"Campaign.sol\":2103:2124  approvers[msg.sender] */\n              0xff\n              and\n                /* \"Campaign.sol\":2095:2125  require(approvers[msg.sender]) */\n              tag_103\n              jumpi\n              0x00\n              dup1\n              revert\n            tag_103:\n                /* \"Campaign.sol\":2209:2219  msg.sender */\n              caller\n                /* \"Campaign.sol\":2191:2220  request.approvals[msg.sender] */\n              0x00\n              swap1\n              dup2\n              mstore\n                /* \"Campaign.sol\":2191:2208  request.approvals */\n              0x04\n              dup3\n              add\n                /* \"Campaign.sol\":2191:2220  request.approvals[msg.sender] */\n              0x20\n              mstore\n              0x40\n              swap1\n              keccak256\n              sload\n              0xff\n              and\n                /* \"Campaign.sol\":2190:2220  !request.approvals[msg.sender] */\n              iszero\n                /* \"Campaign.sol\":2182:2221  require(!request.approvals[msg.sender]) */\n              tag_104\n              jumpi\n              0x00\n              dup1\n              revert\n            tag_104:\n                /* \"Campaign.sol\":2317:2327  msg.sender */\n              caller\n                /* \"Campaign.sol\":2299:2328  request.approvals[msg.sender] */\n              0x00\n              swap1\n              dup2\n              mstore\n                /* \"Campaign.sol\":2299:2316  request.approvals */\n              0x04\n              dup3\n              add\n                /* \"Campaign.sol\":2299:2328  request.approvals[msg.sender] */\n              0x20\n              mstore\n              0x40\n              dup2\n              keccak256\n                /* \"Campaign.sol\":2299:2335  request.approvals[msg.sender] = true */\n              dup1\n              sload\n              not(0xff)\n              and\n                /* \"Campaign.sol\":2331:2335  true */\n              0x01\n                /* \"Campaign.sol\":2299:2335  request.approvals[msg.sender] = true */\n              or\n              swap1\n              sstore\n                /* \"Campaign.sol\":2371:2392  request.approvalCount */\n              0x03\n              dup3\n              add\n                /* \"Campaign.sol\":2371:2394  request.approvalCount++ */\n              dup1\n              sload\n              swap2\n              tag_105\n              dup4\n              tag_98\n              jump\t// in\n            tag_105:\n              swap2\n              swap1\n              pop\n              sstore\n              pop\n                /* \"Campaign.sol\":2005:2429  {... */\n              pop\n                /* \"Campaign.sol\":1962:2429  function approveRequest(uint index) public {... */\n              pop\n              jump\t// out\n            tag_81:\n              dup3\n              dup1\n              sload\n              tag_106\n              swap1\n              tag_71\n              jump\t// in\n            tag_106:\n              swap1\n              0x00\n              mstore\n              keccak256(0x00, 0x20)\n              swap1\n              0x1f\n              add\n              0x20\n              swap1\n              div\n              dup2\n              add\n              swap3\n              dup3\n              tag_108\n              jumpi\n              0x00\n              dup6\n              sstore\n              jump(tag_111)\n            tag_108:\n              dup3\n              0x1f\n              lt\n              tag_109\n              jumpi\n              dup1\n              mload\n              not(0xff)\n              and\n              dup4\n              dup1\n              add\n              or\n              dup6\n              sstore\n              jump(tag_111)\n            tag_109:\n              dup3\n              dup1\n              add\n              0x01\n              add\n              dup6\n              sstore\n              dup3\n              iszero\n              tag_111\n              jumpi\n              swap2\n              dup3\n              add\n            tag_110:\n              dup3\n              dup2\n              gt\n              iszero\n              tag_111\n              jumpi\n              dup3\n              mload\n              dup3\n              sstore\n              swap2\n              0x20\n              add\n              swap2\n              swap1\n              0x01\n              add\n              swap1\n              jump(tag_110)\n            tag_111:\n              pop\n              tag_112\n              swap3\n              swap2\n              pop\n              tag_113\n              jump\t// in\n            tag_112:\n              pop\n              swap1\n              jump\t// out\n            tag_113:\n            tag_114:\n              dup1\n              dup3\n              gt\n              iszero\n              tag_112\n              jumpi\n              0x00\n              dup2\n              sstore\n              0x01\n              add\n              jump(tag_114)\n                /* \"#utility.yul\":14:145   */\n            tag_116:\n              sub(shl(0xa0, 0x01), 0x01)\n                /* \"#utility.yul\":89:120   */\n              dup2\n              and\n                /* \"#utility.yul\":79:121   */\n              dup2\n              eq\n                /* \"#utility.yul\":69:139   */\n              tag_123\n              jumpi\n                /* \"#utility.yul\":135:136   */\n              0x00\n                /* \"#utility.yul\":132:133   */\n              dup1\n                /* \"#utility.yul\":125:137   */\n              revert\n                /* \"#utility.yul\":69:139   */\n            tag_123:\n                /* \"#utility.yul\":14:145   */\n              pop\n              jump\t// out\n                /* \"#utility.yul\":150:397   */\n            tag_17:\n                /* \"#utility.yul\":209:215   */\n              0x00\n                /* \"#utility.yul\":262:264   */\n              0x20\n                /* \"#utility.yul\":250:259   */\n              dup3\n                /* \"#utility.yul\":241:248   */\n              dup5\n                /* \"#utility.yul\":237:260   */\n              sub\n                /* \"#utility.yul\":233:265   */\n              slt\n                /* \"#utility.yul\":230:282   */\n              iszero\n              tag_125\n              jumpi\n                /* \"#utility.yul\":278:279   */\n              0x00\n                /* \"#utility.yul\":275:276   */\n              dup1\n                /* \"#utility.yul\":268:280   */\n              revert\n                /* \"#utility.yul\":230:282   */\n            tag_125:\n                /* \"#utility.yul\":317:326   */\n              dup2\n                /* \"#utility.yul\":304:327   */\n              calldataload\n                /* \"#utility.yul\":336:367   */\n              tag_126\n                /* \"#utility.yul\":361:366   */\n              dup2\n                /* \"#utility.yul\":336:367   */\n              tag_116\n              jump\t// in\n            tag_126:\n                /* \"#utility.yul\":386:391   */\n              swap4\n                /* \"#utility.yul\":150:397   */\n              swap3\n              pop\n              pop\n              pop\n              jump\t// out\n                /* \"#utility.yul\":1683:1863   */\n            tag_39:\n                /* \"#utility.yul\":1742:1748   */\n              0x00\n                /* \"#utility.yul\":1795:1797   */\n              0x20\n                /* \"#utility.yul\":1783:1792   */\n              dup3\n                /* \"#utility.yul\":1774:1781   */\n              dup5\n                /* \"#utility.yul\":1770:1793   */\n              sub\n                /* \"#utility.yul\":1766:1798   */\n              slt\n                /* \"#utility.yul\":1763:1815   */\n              iszero\n              tag_134\n              jumpi\n                /* \"#utility.yul\":1811:1812   */\n              0x00\n                /* \"#utility.yul\":1808:1809   */\n              dup1\n                /* \"#utility.yul\":1801:1813   */\n              revert\n                /* \"#utility.yul\":1763:1815   */\n            tag_134:\n              pop\n                /* \"#utility.yul\":1834:1857   */\n              calldataload\n              swap2\n                /* \"#utility.yul\":1683:1863   */\n              swap1\n              pop\n              jump\t// out\n                /* \"#utility.yul\":1868:2771   */\n            tag_42:\n                /* \"#utility.yul\":2139:2142   */\n              0xa0\n                /* \"#utility.yul\":2128:2137   */\n              dup2\n                /* \"#utility.yul\":2121:2143   */\n              mstore\n                /* \"#utility.yul\":2102:2106   */\n              0x00\n                /* \"#utility.yul\":2172:2178   */\n              dup7\n                /* \"#utility.yul\":2166:2179   */\n              mload\n                /* \"#utility.yul\":2216:2222   */\n              dup1\n                /* \"#utility.yul\":2210:2213   */\n              0xa0\n                /* \"#utility.yul\":2199:2208   */\n              dup5\n                /* \"#utility.yul\":2195:2214   */\n              add\n                /* \"#utility.yul\":2188:2223   */\n              mstore\n                /* \"#utility.yul\":2241:2242   */\n              0x00\n                /* \"#utility.yul\":2251:2396   */\n            tag_136:\n                /* \"#utility.yul\":2265:2271   */\n              dup2\n                /* \"#utility.yul\":2262:2263   */\n              dup2\n                /* \"#utility.yul\":2259:2272   */\n              lt\n                /* \"#utility.yul\":2251:2396   */\n              iszero\n              tag_138\n              jumpi\n                /* \"#utility.yul\":2379:2383   */\n              0x20\n                /* \"#utility.yul\":2363:2377   */\n              dup2\n              dup11\n              add\n                /* \"#utility.yul\":2359:2384   */\n              dup2\n              add\n                /* \"#utility.yul\":2353:2385   */\n              mload\n                /* \"#utility.yul\":2347:2350   */\n              0xc0\n                /* \"#utility.yul\":2328:2345   */\n              dup7\n              dup5\n              add\n                /* \"#utility.yul\":2324:2351   */\n              add\n                /* \"#utility.yul\":2317:2386   */\n              mstore\n                /* \"#utility.yul\":2280:2292   */\n              add\n                /* \"#utility.yul\":2251:2396   */\n              jump(tag_136)\n            tag_138:\n                /* \"#utility.yul\":2414:2420   */\n              dup2\n                /* \"#utility.yul\":2411:2412   */\n              dup2\n                /* \"#utility.yul\":2408:2421   */\n              gt\n                /* \"#utility.yul\":2405:2497   */\n              iszero\n              tag_139\n              jumpi\n                /* \"#utility.yul\":2485:2486   */\n              0x00\n                /* \"#utility.yul\":2479:2482   */\n              0xc0\n                /* \"#utility.yul\":2470:2476   */\n              dup4\n                /* \"#utility.yul\":2459:2468   */\n              dup7\n                /* \"#utility.yul\":2455:2477   */\n              add\n                /* \"#utility.yul\":2451:2483   */\n              add\n                /* \"#utility.yul\":2444:2487   */\n              mstore\n                /* \"#utility.yul\":2405:2497   */\n            tag_139:\n              pop\n                /* \"#utility.yul\":2600:2604   */\n              0x20\n                /* \"#utility.yul\":2585:2605   */\n              dup4\n              add\n                /* \"#utility.yul\":2578:2614   */\n              dup8\n              swap1\n              mstore\n                /* \"#utility.yul\":2558:2560   */\n              0x1f\n                /* \"#utility.yul\":2537:2552   */\n              add\n              not(0x1f)\n                /* \"#utility.yul\":2533:2562   */\n              and\n                /* \"#utility.yul\":2518:2563   */\n              dup3\n              add\n                /* \"#utility.yul\":2565:2568   */\n              0xc0\n                /* \"#utility.yul\":2514:2569   */\n              add\n              swap1\n              pop\n                /* \"#utility.yul\":2623:2669   */\n              tag_140\n                /* \"#utility.yul\":2665:2667   */\n              0x40\n                /* \"#utility.yul\":2650:2668   */\n              dup4\n              add\n                /* \"#utility.yul\":2642:2648   */\n              dup7\n              sub(shl(0xa0, 0x01), 0x01)\n                /* \"#utility.yul\":938:969   */\n              and\n                /* \"#utility.yul\":926:970   */\n              swap1\n              mstore\n                /* \"#utility.yul\":872:976   */\n              jump\n                /* \"#utility.yul\":2623:2669   */\n            tag_140:\n                /* \"#utility.yul\":472:485   */\n              swap3\n              iszero\n                /* \"#utility.yul\":465:486   */\n              iszero\n                /* \"#utility.yul\":2717:2719   */\n              0x60\n                /* \"#utility.yul\":2702:2720   */\n              dup3\n              add\n                /* \"#utility.yul\":453:487   */\n              mstore\n                /* \"#utility.yul\":2752:2755   */\n              0x80\n                /* \"#utility.yul\":2737:2756   */\n              add\n                /* \"#utility.yul\":2730:2765   */\n              mstore\n                /* \"#utility.yul\":1868:2771   */\n              swap4\n              swap3\n              pop\n              pop\n              pop\n              jump\t// out\n                /* \"#utility.yul\":2776:2903   */\n            tag_119:\n                /* \"#utility.yul\":2837:2847   */\n              0x4e487b71\n                /* \"#utility.yul\":2832:2835   */\n              0xe0\n                /* \"#utility.yul\":2828:2848   */\n              shl\n                /* \"#utility.yul\":2825:2826   */\n              0x00\n                /* \"#utility.yul\":2818:2849   */\n              mstore\n                /* \"#utility.yul\":2868:2872   */\n              0x41\n                /* \"#utility.yul\":2865:2866   */\n              0x04\n                /* \"#utility.yul\":2858:2873   */\n              mstore\n                /* \"#utility.yul\":2892:2896   */\n              0x24\n                /* \"#utility.yul\":2889:2890   */\n              0x00\n                /* \"#utility.yul\":2882:2897   */\n              revert\n                /* \"#utility.yul\":2908:3050   */\n            tag_120:\n                /* \"#utility.yul\":2984:3004   */\n              dup1\n              calldataload\n                /* \"#utility.yul\":3013:3044   */\n              tag_144\n                /* \"#utility.yul\":2984:3004   */\n              dup2\n                /* \"#utility.yul\":3013:3044   */\n              tag_116\n              jump\t// in\n            tag_144:\n                /* \"#utility.yul\":2908:3050   */\n              swap2\n              swap1\n              pop\n              jump\t// out\n                /* \"#utility.yul\":3055:4145   */\n            tag_50:\n                /* \"#utility.yul\":3150:3156   */\n              0x00\n                /* \"#utility.yul\":3158:3164   */\n              dup1\n                /* \"#utility.yul\":3166:3172   */\n              0x00\n                /* \"#utility.yul\":3219:3221   */\n              0x60\n                /* \"#utility.yul\":3207:3216   */\n              dup5\n                /* \"#utility.yul\":3198:3205   */\n              dup7\n                /* \"#utility.yul\":3194:3217   */\n              sub\n                /* \"#utility.yul\":3190:3222   */\n              slt\n                /* \"#utility.yul\":3187:3239   */\n              iszero\n              tag_146\n              jumpi\n                /* \"#utility.yul\":3235:3236   */\n              0x00\n                /* \"#utility.yul\":3232:3233   */\n              dup1\n                /* \"#utility.yul\":3225:3237   */\n              revert\n                /* \"#utility.yul\":3187:3239   */\n            tag_146:\n                /* \"#utility.yul\":3275:3284   */\n              dup4\n                /* \"#utility.yul\":3262:3285   */\n              calldataload\n                /* \"#utility.yul\":3304:3322   */\n              0xffffffffffffffff\n                /* \"#utility.yul\":3345:3347   */\n              dup1\n                /* \"#utility.yul\":3337:3343   */\n              dup3\n                /* \"#utility.yul\":3334:3348   */\n              gt\n                /* \"#utility.yul\":3331:3365   */\n              iszero\n              tag_147\n              jumpi\n                /* \"#utility.yul\":3361:3362   */\n              0x00\n                /* \"#utility.yul\":3358:3359   */\n              dup1\n                /* \"#utility.yul\":3351:3363   */\n              revert\n                /* \"#utility.yul\":3331:3365   */\n            tag_147:\n                /* \"#utility.yul\":3399:3405   */\n              dup2\n                /* \"#utility.yul\":3388:3397   */\n              dup7\n                /* \"#utility.yul\":3384:3406   */\n              add\n                /* \"#utility.yul\":3374:3406   */\n              swap2\n              pop\n                /* \"#utility.yul\":3444:3451   */\n              dup7\n                /* \"#utility.yul\":3437:3441   */\n              0x1f\n                /* \"#utility.yul\":3433:3435   */\n              dup4\n                /* \"#utility.yul\":3429:3442   */\n              add\n                /* \"#utility.yul\":3425:3452   */\n              slt\n                /* \"#utility.yul\":3415:3470   */\n              tag_148\n              jumpi\n                /* \"#utility.yul\":3466:3467   */\n              0x00\n                /* \"#utility.yul\":3463:3464   */\n              dup1\n                /* \"#utility.yul\":3456:3468   */\n              revert\n                /* \"#utility.yul\":3415:3470   */\n            tag_148:\n                /* \"#utility.yul\":3502:3504   */\n              dup2\n                /* \"#utility.yul\":3489:3505   */\n              calldataload\n                /* \"#utility.yul\":3524:3526   */\n              dup2\n                /* \"#utility.yul\":3520:3522   */\n              dup2\n                /* \"#utility.yul\":3517:3527   */\n              gt\n                /* \"#utility.yul\":3514:3550   */\n              iszero\n              tag_150\n              jumpi\n                /* \"#utility.yul\":3530:3548   */\n              tag_150\n              tag_119\n              jump\t// in\n            tag_150:\n                /* \"#utility.yul\":3605:3607   */\n              0x40\n                /* \"#utility.yul\":3599:3608   */\n              mload\n                /* \"#utility.yul\":3573:3575   */\n              0x1f\n                /* \"#utility.yul\":3659:3672   */\n              dup3\n              add\n              not(0x1f)\n                /* \"#utility.yul\":3655:3677   */\n              swap1\n              dup2\n              and\n                /* \"#utility.yul\":3679:3681   */\n              0x3f\n                /* \"#utility.yul\":3651:3682   */\n              add\n                /* \"#utility.yul\":3647:3687   */\n              and\n                /* \"#utility.yul\":3635:3688   */\n              dup2\n              add\n              swap1\n                /* \"#utility.yul\":3703:3721   */\n              dup4\n              dup3\n              gt\n                /* \"#utility.yul\":3723:3745   */\n              dup2\n              dup4\n              lt\n                /* \"#utility.yul\":3700:3746   */\n              or\n                /* \"#utility.yul\":3697:3769   */\n              iszero\n              tag_152\n              jumpi\n                /* \"#utility.yul\":3749:3767   */\n              tag_152\n              tag_119\n              jump\t// in\n            tag_152:\n                /* \"#utility.yul\":3789:3799   */\n              dup2\n                /* \"#utility.yul\":3785:3787   */\n              0x40\n                /* \"#utility.yul\":3778:3800   */\n              mstore\n                /* \"#utility.yul\":3824:3826   */\n              dup3\n                /* \"#utility.yul\":3816:3822   */\n              dup2\n                /* \"#utility.yul\":3809:3827   */\n              mstore\n                /* \"#utility.yul\":3866:3873   */\n              dup10\n                /* \"#utility.yul\":3859:3863   */\n              0x20\n                /* \"#utility.yul\":3854:3856   */\n              dup5\n                /* \"#utility.yul\":3850:3852   */\n              dup8\n                /* \"#utility.yul\":3846:3857   */\n              add\n                /* \"#utility.yul\":3842:3864   */\n              add\n                /* \"#utility.yul\":3839:3874   */\n              gt\n                /* \"#utility.yul\":3836:3891   */\n              iszero\n              tag_153\n              jumpi\n                /* \"#utility.yul\":3887:3888   */\n              0x00\n                /* \"#utility.yul\":3884:3885   */\n              dup1\n                /* \"#utility.yul\":3877:3889   */\n              revert\n                /* \"#utility.yul\":3836:3891   */\n            tag_153:\n                /* \"#utility.yul\":3947:3949   */\n              dup3\n                /* \"#utility.yul\":3940:3944   */\n              0x20\n                /* \"#utility.yul\":3936:3938   */\n              dup7\n                /* \"#utility.yul\":3932:3945   */\n              add\n                /* \"#utility.yul\":3925:3929   */\n              0x20\n                /* \"#utility.yul\":3917:3923   */\n              dup4\n                /* \"#utility.yul\":3913:3930   */\n              add\n                /* \"#utility.yul\":3900:3950   */\n              calldatacopy\n                /* \"#utility.yul\":3994:3995   */\n              0x00\n                /* \"#utility.yul\":3987:3991   */\n              0x20\n                /* \"#utility.yul\":3982:3984   */\n              dup5\n                /* \"#utility.yul\":3974:3980   */\n              dup4\n                /* \"#utility.yul\":3970:3985   */\n              add\n                /* \"#utility.yul\":3966:3992   */\n              add\n                /* \"#utility.yul\":3959:3996   */\n              mstore\n                /* \"#utility.yul\":4015:4021   */\n              dup1\n                /* \"#utility.yul\":4005:4021   */\n              swap8\n              pop\n              pop\n              pop\n              pop\n              pop\n              pop\n                /* \"#utility.yul\":4068:4072   */\n              0x20\n                /* \"#utility.yul\":4057:4066   */\n              dup5\n                /* \"#utility.yul\":4053:4073   */\n              add\n                /* \"#utility.yul\":4040:4074   */\n              calldataload\n                /* \"#utility.yul\":4030:4074   */\n              swap2\n              pop\n                /* \"#utility.yul\":4093:4139   */\n              tag_154\n                /* \"#utility.yul\":4135:4137   */\n              0x40\n                /* \"#utility.yul\":4124:4133   */\n              dup6\n                /* \"#utility.yul\":4120:4138   */\n              add\n                /* \"#utility.yul\":4093:4139   */\n              tag_120\n              jump\t// in\n            tag_154:\n                /* \"#utility.yul\":4083:4139   */\n              swap1\n              pop\n                /* \"#utility.yul\":3055:4145   */\n              swap3\n              pop\n              swap3\n              pop\n              swap3\n              jump\t// out\n                /* \"#utility.yul\":4150:4530   */\n            tag_71:\n                /* \"#utility.yul\":4229:4230   */\n              0x01\n                /* \"#utility.yul\":4225:4237   */\n              dup2\n              dup2\n              shr\n              swap1\n                /* \"#utility.yul\":4272:4284   */\n              dup3\n              and\n              dup1\n                /* \"#utility.yul\":4293:4354   */\n              tag_156\n              jumpi\n                /* \"#utility.yul\":4347:4351   */\n              0x7f\n                /* \"#utility.yul\":4339:4345   */\n              dup3\n                /* \"#utility.yul\":4335:4352   */\n              and\n                /* \"#utility.yul\":4325:4352   */\n              swap2\n              pop\n                /* \"#utility.yul\":4293:4354   */\n            tag_156:\n                /* \"#utility.yul\":4400:4402   */\n              0x20\n                /* \"#utility.yul\":4392:4398   */\n              dup3\n                /* \"#utility.yul\":4389:4403   */\n              lt\n                /* \"#utility.yul\":4369:4387   */\n              dup2\n                /* \"#utility.yul\":4366:4404   */\n              eq\n                /* \"#utility.yul\":4363:4524   */\n              iszero\n              tag_157\n              jumpi\n                /* \"#utility.yul\":4446:4456   */\n              0x4e487b71\n                /* \"#utility.yul\":4441:4444   */\n              0xe0\n                /* \"#utility.yul\":4437:4457   */\n              shl\n                /* \"#utility.yul\":4434:4435   */\n              0x00\n                /* \"#utility.yul\":4427:4458   */\n              mstore\n                /* \"#utility.yul\":4481:4485   */\n              0x22\n                /* \"#utility.yul\":4478:4479   */\n              0x04\n                /* \"#utility.yul\":4471:4486   */\n              mstore\n                /* \"#utility.yul\":4509:4513   */\n              0x24\n                /* \"#utility.yul\":4506:4507   */\n              0x00\n                /* \"#utility.yul\":4499:4514   */\n              revert\n                /* \"#utility.yul\":4363:4524   */\n            tag_157:\n              pop\n                /* \"#utility.yul\":4150:4530   */\n              swap2\n              swap1\n              pop\n              jump\t// out\n                /* \"#utility.yul\":4535:4662   */\n            tag_87:\n                /* \"#utility.yul\":4596:4606   */\n              0x4e487b71\n                /* \"#utility.yul\":4591:4594   */\n              0xe0\n                /* \"#utility.yul\":4587:4607   */\n              shl\n                /* \"#utility.yul\":4584:4585   */\n              0x00\n                /* \"#utility.yul\":4577:4608   */\n              mstore\n                /* \"#utility.yul\":4627:4631   */\n              0x32\n                /* \"#utility.yul\":4624:4625   */\n              0x04\n                /* \"#utility.yul\":4617:4632   */\n              mstore\n                /* \"#utility.yul\":4651:4655   */\n              0x24\n                /* \"#utility.yul\":4648:4649   */\n              0x00\n                /* \"#utility.yul\":4641:4656   */\n              revert\n                /* \"#utility.yul\":4667:4884   */\n            tag_91:\n                /* \"#utility.yul\":4707:4708   */\n              0x00\n                /* \"#utility.yul\":4733:4734   */\n              dup3\n                /* \"#utility.yul\":4723:4855   */\n              tag_160\n              jumpi\n                /* \"#utility.yul\":4777:4787   */\n              0x4e487b71\n                /* \"#utility.yul\":4772:4775   */\n              0xe0\n                /* \"#utility.yul\":4768:4788   */\n              shl\n                /* \"#utility.yul\":4765:4766   */\n              0x00\n                /* \"#utility.yul\":4758:4789   */\n              mstore\n                /* \"#utility.yul\":4812:4816   */\n              0x12\n                /* \"#utility.yul\":4809:4810   */\n              0x04\n                /* \"#utility.yul\":4802:4817   */\n              mstore\n                /* \"#utility.yul\":4840:4844   */\n              0x24\n                /* \"#utility.yul\":4837:4838   */\n              0x00\n                /* \"#utility.yul\":4830:4845   */\n              revert\n                /* \"#utility.yul\":4723:4855   */\n            tag_160:\n              pop\n                /* \"#utility.yul\":4869:4878   */\n              div\n              swap1\n                /* \"#utility.yul\":4667:4884   */\n              jump\t// out\n                /* \"#utility.yul\":4889:5121   */\n            tag_98:\n                /* \"#utility.yul\":4928:4931   */\n              0x00\n              not(0x00)\n                /* \"#utility.yul\":4949:4966   */\n              dup3\n              eq\n                /* \"#utility.yul\":4946:5086   */\n              iszero\n              tag_162\n              jumpi\n                /* \"#utility.yul\":5008:5018   */\n              0x4e487b71\n                /* \"#utility.yul\":5003:5006   */\n              0xe0\n                /* \"#utility.yul\":4999:5019   */\n              shl\n                /* \"#utility.yul\":4996:4997   */\n              0x00\n                /* \"#utility.yul\":4989:5020   */\n              mstore\n                /* \"#utility.yul\":5043:5047   */\n              0x11\n                /* \"#utility.yul\":5040:5041   */\n              0x04\n                /* \"#utility.yul\":5033:5048   */\n              mstore\n                /* \"#utility.yul\":5071:5075   */\n              0x24\n                /* \"#utility.yul\":5068:5069   */\n              0x00\n                /* \"#utility.yul\":5061:5076   */\n              revert\n                /* \"#utility.yul\":4946:5086   */\n            tag_162:\n              pop\n                /* \"#utility.yul\":5113:5114   */\n              0x01\n                /* \"#utility.yul\":5102:5115   */\n              add\n              swap1\n                /* \"#utility.yul\":4889:5121   */\n              jump\t// out\n\n            auxdata: 0xa264697066735822122084854be855673089b540a752de115dd651ee7ba6813ad65db8b6298573dd257164736f6c634300080c0033\n        }\n    }\n\n    auxdata: 0xa2646970667358221220db8bde31433f046b66578f868620c28210814619db5659226799008d584d953e64736f6c634300080c0033\n}\n","bytecode":{"linkReferences":{},"object":"608060405234801561001057600080fd5b50610c2c806100206000396000f3fe608060405234801561001057600080fd5b506004361061004c5760003560e01c8063141961bc14610051578063805ba43e14610081578063a3303a7514610096578063a6b03633146100a9575b600080fd5b61006461005f36600461022a565b6100be565b6040516001600160a01b0390911681526020015b60405180910390f35b61009461008f366004610243565b6100e8565b005b6100946100a436600461022a565b610129565b6100b16101bb565b6040516100789190610273565b600081815481106100ce57600080fd5b6000918252602090912001546001600160a01b0316905081565b6040516001600160a01b038216815242907fbc2510bd36a6658be7210d767a949e618e367a8023527321151113ce209c5e4a9060200160405180910390a250565b600081336040516101399061021d565b9182526001600160a01b03166020820152604001604051809103906000f080158015610169573d6000803e3d6000fd5b50600080546001810182559080527f290decd9548b62a8d60345a988386fc84ba6bc95484008f6362f93160ef3e5630180546001600160a01b0319166001600160a01b03929092169190911790555050565b6060600080548060200260200160405190810160405280929190818152602001828054801561021357602002820191906000526020600020905b81546001600160a01b031681526001909101906020018083116101f5575b5050505050905090565b610936806102c183390190565b60006020828403121561023c57600080fd5b5035919050565b60006020828403121561025557600080fd5b81356001600160a01b038116811461026c57600080fd5b9392505050565b6020808252825182820181905260009190848201906040850190845b818110156102b45783516001600160a01b03168352928401929184019160010161028f565b5090969550505050505056fe608060405234801561001057600080fd5b5060405161093638038061093683398101604081905261002f91610057565b600080546001600160a01b0319166001600160a01b0392909216919091179055600155610094565b6000806040838503121561006a57600080fd5b825160208401519092506001600160a01b038116811461008957600080fd5b809150509250929050565b610893806100a36000396000f3fe60806040526004361061009c5760003560e01c806382fde0931161006457806382fde093146101b55780638a9cfd55146101cb578063937e09b1146101ed578063cc1e035914610203578063d7bb99ba14610223578063d7d1bbdb1461022b57600080fd5b80630a144391146100a15780633410452a146100e65780634051ddac14610105578063481c6a751461014c57806381d12c5814610184575b600080fd5b3480156100ad57600080fd5b506100d16100bc366004610615565b60026020526000908152604090205460ff1681565b60405190151581526020015b60405180910390f35b3480156100f257600080fd5b506005545b6040519081526020016100dd565b34801561011157600080fd5b506001546005546003546000546040805194855247602086015284019290925260608301526001600160a01b0316608082015260a0016100dd565b34801561015857600080fd5b5060005461016c906001600160a01b031681565b6040516001600160a01b0390911681526020016100dd565b34801561019057600080fd5b506101a461019f366004610639565b61024b565b6040516100dd959493929190610652565b3480156101c157600080fd5b506100f760035481565b3480156101d757600080fd5b506101eb6101e63660046106f6565b61032a565b005b3480156101f957600080fd5b506100f760015481565b34801561020f57600080fd5b506101eb61021e366004610639565b6103bc565b6101eb610490565b34801561023757600080fd5b506101eb610246366004610639565b6104cd565b6005818154811061025b57600080fd5b906000526020600020906005020160009150905080600001805461027e906107c1565b80601f01602080910402602001604051908101604052809291908181526020018280546102aa906107c1565b80156102f75780601f106102cc576101008083540402835291602001916102f7565b820191906000526020600020905b8154815290600101906020018083116102da57829003601f168201915b5050505060018301546002840154600390940154929390926001600160a01b0382169250600160a01b90910460ff169085565b6000546001600160a01b0316331461034157600080fd5b600580546001810182556000829052845191027f036b6384b5eca791c62761152d0c79bb0604c104a5fb6f4eb0703f3154bb3db001906103879082906020870190610564565b5060018101929092556002820180546001600160a81b0319166001600160a01b03909216919091179055600060039091015550565b6000546001600160a01b031633146103d357600080fd5b6000600582815481106103e8576103e86107fc565b906000526020600020906005020190508060020160149054906101000a900460ff161561041457600080fd5b600060026003546104259190610812565b90508082600301541161043757600080fd5b600282015460018301546040516001600160a01b039092169181156108fc0291906000818181858888f19350505050158015610477573d6000803e3d6000fd5b5050600201805460ff60a01b1916600160a01b17905550565b600154341161049e57600080fd5b336000908152600260205260408120805460ff1916600117905560038054916104c683610834565b9190505550565b6000600582815481106104e2576104e26107fc565b6000918252602080832033845260029091526040909220546005909102909101915060ff1661051057600080fd5b33600090815260048201602052604090205460ff161561052f57600080fd5b3360009081526004820160205260408120805460ff191660011790556003820180549161055b83610834565b91905055505050565b828054610570906107c1565b90600052602060002090601f01602090048101928261059257600085556105d8565b82601f106105ab57805160ff19168380011785556105d8565b828001600101855582156105d8579182015b828111156105d85782518255916020019190600101906105bd565b506105e49291506105e8565b5090565b5b808211156105e457600081556001016105e9565b6001600160a01b038116811461061257600080fd5b50565b60006020828403121561062757600080fd5b8135610632816105fd565b9392505050565b60006020828403121561064b57600080fd5b5035919050565b60a08152600086518060a084015260005b81811015610680576020818a0181015160c0868401015201610663565b8181111561069257600060c083860101525b5060208301879052601f01601f1916820160c00190506106bd60408301866001600160a01b03169052565b9215156060820152608001529392505050565b634e487b7160e01b600052604160045260246000fd5b80356106f1816105fd565b919050565b60008060006060848603121561070b57600080fd5b833567ffffffffffffffff8082111561072357600080fd5b818601915086601f83011261073757600080fd5b813581811115610749576107496106d0565b604051601f8201601f19908116603f01168101908382118183101715610771576107716106d0565b8160405282815289602084870101111561078a57600080fd5b826020860160208301376000602084830101528097505050505050602084013591506107b8604085016106e6565b90509250925092565b600181811c908216806107d557607f821691505b602082108114156107f657634e487b7160e01b600052602260045260246000fd5b50919050565b634e487b7160e01b600052603260045260246000fd5b60008261082f57634e487b7160e01b600052601260045260246000fd5b500490565b600060001982141561085657634e487b7160e01b600052601160045260246000fd5b506001019056fea264697066735822122084854be855673089b540a752de115dd651ee7ba6813ad65db8b6298573dd257164736f6c634300080c0033a2646970667358221220db8bde31433f046b66578f868620c28210814619db5659226799008d584d953e64736f6c634300080c0033","opcodes":"PUSH1 0x80 PUSH1 0x40 MSTORE CALLVALUE DUP1 ISZERO PUSH2 0x10 JUMPI PUSH1 0x0 DUP1 REVERT JUMPDEST POP PUSH2 0xC2C DUP1 PUSH2 0x20 PUSH1 0x0 CODECOPY PUSH1 0x0 RETURN INVALID PUSH1 0x80 PUSH1 0x40 MSTORE CALLVALUE DUP1 ISZERO PUSH2 0x10 JUMPI PUSH1 0x0 DUP1 REVERT JUMPDEST POP PUSH1 0x4 CALLDATASIZE LT PUSH2 0x4C JUMPI PUSH1 0x0 CALLDATALOAD PUSH1 0xE0 SHR DUP1 PUSH4 0x141961BC EQ PUSH2 0x51 JUMPI DUP1 PUSH4 0x805BA43E EQ PUSH2 0x81 JUMPI DUP1 PUSH4 0xA3303A75 EQ PUSH2 0x96 JUMPI DUP1 PUSH4 0xA6B03633 EQ PUSH2 0xA9 JUMPI JUMPDEST PUSH1 0x0 DUP1 REVERT JUMPDEST PUSH2 0x64 PUSH2 0x5F CALLDATASIZE PUSH1 0x4 PUSH2 0x22A JUMP JUMPDEST PUSH2 0xBE JUMP JUMPDEST PUSH1 0x40 MLOAD PUSH1 0x1 PUSH1 0x1 PUSH1 0xA0 SHL SUB SWAP1 SWAP2 AND DUP2 MSTORE PUSH1 0x20 ADD JUMPDEST PUSH1 0x40 MLOAD DUP1 SWAP2 SUB SWAP1 RETURN JUMPDEST PUSH2 0x94 PUSH2 0x8F CALLDATASIZE PUSH1 0x4 PUSH2 0x243 JUMP JUMPDEST PUSH2 0xE8 JUMP JUMPDEST STOP JUMPDEST PUSH2 0x94 PUSH2 0xA4 CALLDATASIZE PUSH1 0x4 PUSH2 0x22A JUMP JUMPDEST PUSH2 0x129 JUMP JUMPDEST PUSH2 0xB1 PUSH2 0x1BB JUMP JUMPDEST PUSH1 0x40 MLOAD PUSH2 0x78 SWAP2 SWAP1 PUSH2 0x273 JUMP JUMPDEST PUSH1 0x0 DUP2 DUP2 SLOAD DUP2 LT PUSH2 0xCE JUMPI PUSH1 0x0 DUP1 REVERT JUMPDEST PUSH1 0x0 SWAP2 DUP3 MSTORE PUSH1 0x20 SWAP1 SWAP2 KECCAK256 ADD SLOAD PUSH1 0x1 PUSH1 0x1 PUSH1 0xA0 SHL SUB AND SWAP1 POP DUP2 JUMP JUMPDEST PUSH1 0x40 MLOAD PUSH1 0x1 PUSH1 0x1 PUSH1 0xA0 SHL SUB DUP3 AND DUP2 MSTORE TIMESTAMP SWAP1 PUSH32 0xBC2510BD36A6658BE7210D767A949E618E367A8023527321151113CE209C5E4A SWAP1 PUSH1 0x20 ADD PUSH1 0x40 MLOAD DUP1 SWAP2 SUB SWAP1 LOG2 POP JUMP JUMPDEST PUSH1 0x0 DUP2 CALLER PUSH1 0x40 MLOAD PUSH2 0x139 SWAP1 PUSH2 0x21D JUMP JUMPDEST SWAP2 DUP3 MSTORE PUSH1 0x1 PUSH1 0x1 PUSH1 0xA0 SHL SUB AND PUSH1 0x20 DUP3 ADD MSTORE PUSH1 0x40 ADD PUSH1 0x40 MLOAD DUP1 SWAP2 SUB SWAP1 PUSH1 0x0 CREATE DUP1 ISZERO DUP1 ISZERO PUSH2 0x169 JUMPI RETURNDATASIZE PUSH1 0x0 DUP1 RETURNDATACOPY RETURNDATASIZE PUSH1 0x0 REVERT JUMPDEST POP PUSH1 0x0 DUP1 SLOAD PUSH1 0x1 DUP2 ADD DUP3 SSTORE SWAP1 DUP1 MSTORE PUSH32 0x290DECD9548B62A8D60345A988386FC84BA6BC95484008F6362F93160EF3E563 ADD DUP1 SLOAD PUSH1 0x1 PUSH1 0x1 PUSH1 0xA0 SHL SUB NOT AND PUSH1 0x1 PUSH1 0x1 PUSH1 0xA0 SHL SUB SWAP3 SWAP1 SWAP3 AND SWAP2 SWAP1 SWAP2 OR SWAP1 SSTORE POP POP JUMP JUMPDEST PUSH1 0x60 PUSH1 0x0 DUP1 SLOAD DUP1 PUSH1 0x20 MUL PUSH1 0x20 ADD PUSH1 0x40 MLOAD SWAP1 DUP2 ADD PUSH1 0x40 MSTORE DUP1 SWAP3 SWAP2 SWAP1 DUP2 DUP2 MSTORE PUSH1 0x20 ADD DUP3 DUP1 SLOAD DUP1 ISZERO PUSH2 0x213 JUMPI PUSH1 0x20 MUL DUP3 ADD SWAP2 SWAP1 PUSH1 0x0 MSTORE PUSH1 0x20 PUSH1 0x0 KECCAK256 SWAP1 JUMPDEST DUP2 SLOAD PUSH1 0x1 PUSH1 0x1 PUSH1 0xA0 SHL SUB AND DUP2 MSTORE PUSH1 0x1 SWAP1 SWAP2 ADD SWAP1 PUSH1 0x20 ADD DUP1 DUP4 GT PUSH2 0x1F5 JUMPI JUMPDEST POP POP POP POP POP SWAP1 POP SWAP1 JUMP JUMPDEST PUSH2 0x936 DUP1 PUSH2 0x2C1 DUP4 CODECOPY ADD SWAP1 JUMP JUMPDEST PUSH1 0x0 PUSH1 0x20 DUP3 DUP5 SUB SLT ISZERO PUSH2 0x23C JUMPI PUSH1 0x0 DUP1 REVERT JUMPDEST POP CALLDATALOAD SWAP2 SWAP1 POP JUMP JUMPDEST PUSH1 0x0 PUSH1 0x20 DUP3 DUP5 SUB SLT ISZERO PUSH2 0x255 JUMPI PUSH1 0x0 DUP1 REVERT JUMPDEST DUP2 CALLDATALOAD PUSH1 0x1 PUSH1 0x1 PUSH1 0xA0 SHL SUB DUP2 AND DUP2 EQ PUSH2 0x26C JUMPI PUSH1 0x0 DUP1 REVERT JUMPDEST SWAP4 SWAP3 POP POP POP JUMP JUMPDEST PUSH1 0x20 DUP1 DUP3 MSTORE DUP3 MLOAD DUP3 DUP3 ADD DUP2 SWAP1 MSTORE PUSH1 0x0 SWAP2 SWAP1 DUP5 DUP3 ADD SWAP1 PUSH1 0x40 DUP6 ADD SWAP1 DUP5 JUMPDEST DUP2 DUP2 LT ISZERO PUSH2 0x2B4 JUMPI DUP4 MLOAD PUSH1 0x1 PUSH1 0x1 PUSH1 0xA0 SHL SUB AND DUP4 MSTORE SWAP3 DUP5 ADD SWAP3 SWAP2 DUP5 ADD SWAP2 PUSH1 0x1 ADD PUSH2 0x28F JUMP JUMPDEST POP SWAP1 SWAP7 SWAP6 POP POP POP POP POP POP JUMP INVALID PUSH1 0x80 PUSH1 0x40 MSTORE CALLVALUE DUP1 ISZERO PUSH2 0x10 JUMPI PUSH1 0x0 DUP1 REVERT JUMPDEST POP PUSH1 0x40 MLOAD PUSH2 0x936 CODESIZE SUB DUP1 PUSH2 0x936 DUP4 CODECOPY DUP2 ADD PUSH1 0x40 DUP2 SWAP1 MSTORE PUSH2 0x2F SWAP2 PUSH2 0x57 JUMP JUMPDEST PUSH1 0x0 DUP1 SLOAD PUSH1 0x1 PUSH1 0x1 PUSH1 0xA0 SHL SUB NOT AND PUSH1 0x1 PUSH1 0x1 PUSH1 0xA0 SHL SUB SWAP3 SWAP1 SWAP3 AND SWAP2 SWAP1 SWAP2 OR SWAP1 SSTORE PUSH1 0x1 SSTORE PUSH2 0x94 JUMP JUMPDEST PUSH1 0x0 DUP1 PUSH1 0x40 DUP4 DUP6 SUB SLT ISZERO PUSH2 0x6A JUMPI PUSH1 0x0 DUP1 REVERT JUMPDEST DUP3 MLOAD PUSH1 0x20 DUP5 ADD MLOAD SWAP1 SWAP3 POP PUSH1 0x1 PUSH1 0x1 PUSH1 0xA0 SHL SUB DUP2 AND DUP2 EQ PUSH2 0x89 JUMPI PUSH1 0x0 DUP1 REVERT JUMPDEST DUP1 SWAP2 POP POP SWAP3 POP SWAP3 SWAP1 POP JUMP JUMPDEST PUSH2 0x893 DUP1 PUSH2 0xA3 PUSH1 0x0 CODECOPY PUSH1 0x0 RETURN INVALID PUSH1 0x80 PUSH1 0x40 MSTORE PUSH1 0x4 CALLDATASIZE LT PUSH2 0x9C JUMPI PUSH1 0x0 CALLDATALOAD PUSH1 0xE0 SHR DUP1 PUSH4 0x82FDE093 GT PUSH2 0x64 JUMPI DUP1 PUSH4 0x82FDE093 EQ PUSH2 0x1B5 JUMPI DUP1 PUSH4 0x8A9CFD55 EQ PUSH2 0x1CB JUMPI DUP1 PUSH4 0x937E09B1 EQ PUSH2 0x1ED JUMPI DUP1 PUSH4 0xCC1E0359 EQ PUSH2 0x203 JUMPI DUP1 PUSH4 0xD7BB99BA EQ PUSH2 0x223 JUMPI DUP1 PUSH4 0xD7D1BBDB EQ PUSH2 0x22B JUMPI PUSH1 0x0 DUP1 REVERT JUMPDEST DUP1 PUSH4 0xA144391 EQ PUSH2 0xA1 JUMPI DUP1 PUSH4 0x3410452A EQ PUSH2 0xE6 JUMPI DUP1 PUSH4 0x4051DDAC EQ PUSH2 0x105 JUMPI DUP1 PUSH4 0x481C6A75 EQ PUSH2 0x14C JUMPI DUP1 PUSH4 0x81D12C58 EQ PUSH2 0x184 JUMPI JUMPDEST PUSH1 0x0 DUP1 REVERT JUMPDEST CALLVALUE DUP1 ISZERO PUSH2 0xAD JUMPI PUSH1 0x0 DUP1 REVERT JUMPDEST POP PUSH2 0xD1 PUSH2 0xBC CALLDATASIZE PUSH1 0x4 PUSH2 0x615 JUMP JUMPDEST PUSH1 0x2 PUSH1 0x20 MSTORE PUSH1 0x0 SWAP1 DUP2 MSTORE PUSH1 0x40 SWAP1 KECCAK256 SLOAD PUSH1 0xFF AND DUP2 JUMP JUMPDEST PUSH1 0x40 MLOAD SWAP1 ISZERO ISZERO DUP2 MSTORE PUSH1 0x20 ADD JUMPDEST PUSH1 0x40 MLOAD DUP1 SWAP2 SUB SWAP1 RETURN JUMPDEST CALLVALUE DUP1 ISZERO PUSH2 0xF2 JUMPI PUSH1 0x0 DUP1 REVERT JUMPDEST POP PUSH1 0x5 SLOAD JUMPDEST PUSH1 0x40 MLOAD SWAP1 DUP2 MSTORE PUSH1 0x20 ADD PUSH2 0xDD JUMP JUMPDEST CALLVALUE DUP1 ISZERO PUSH2 0x111 JUMPI PUSH1 0x0 DUP1 REVERT JUMPDEST POP PUSH1 0x1 SLOAD PUSH1 0x5 SLOAD PUSH1 0x3 SLOAD PUSH1 0x0 SLOAD PUSH1 0x40 DUP1 MLOAD SWAP5 DUP6 MSTORE SELFBALANCE PUSH1 0x20 DUP7 ADD MSTORE DUP5 ADD SWAP3 SWAP1 SWAP3 MSTORE PUSH1 0x60 DUP4 ADD MSTORE PUSH1 0x1 PUSH1 0x1 PUSH1 0xA0 SHL SUB AND PUSH1 0x80 DUP3 ADD MSTORE PUSH1 0xA0 ADD PUSH2 0xDD JUMP JUMPDEST CALLVALUE DUP1 ISZERO PUSH2 0x158 JUMPI PUSH1 0x0 DUP1 REVERT JUMPDEST POP PUSH1 0x0 SLOAD PUSH2 0x16C SWAP1 PUSH1 0x1 PUSH1 0x1 PUSH1 0xA0 SHL SUB AND DUP2 JUMP JUMPDEST PUSH1 0x40 MLOAD PUSH1 0x1 PUSH1 0x1 PUSH1 0xA0 SHL SUB SWAP1 SWAP2 AND DUP2 MSTORE PUSH1 0x20 ADD PUSH2 0xDD JUMP JUMPDEST CALLVALUE DUP1 ISZERO PUSH2 0x190 JUMPI PUSH1 0x0 DUP1 REVERT JUMPDEST POP PUSH2 0x1A4 PUSH2 0x19F CALLDATASIZE PUSH1 0x4 PUSH2 0x639 JUMP JUMPDEST PUSH2 0x24B JUMP JUMPDEST PUSH1 0x40 MLOAD PUSH2 0xDD SWAP6 SWAP5 SWAP4 SWAP3 SWAP2 SWAP1 PUSH2 0x652 JUMP JUMPDEST CALLVALUE DUP1 ISZERO PUSH2 0x1C1 JUMPI PUSH1 0x0 DUP1 REVERT JUMPDEST POP PUSH2 0xF7 PUSH1 0x3 SLOAD DUP2 JUMP JUMPDEST CALLVALUE DUP1 ISZERO PUSH2 0x1D7 JUMPI PUSH1 0x0 DUP1 REVERT JUMPDEST POP PUSH2 0x1EB PUSH2 0x1E6 CALLDATASIZE PUSH1 0x4 PUSH2 0x6F6 JUMP JUMPDEST PUSH2 0x32A JUMP JUMPDEST STOP JUMPDEST CALLVALUE DUP1 ISZERO PUSH2 0x1F9 JUMPI PUSH1 0x0 DUP1 REVERT JUMPDEST POP PUSH2 0xF7 PUSH1 0x1 SLOAD DUP2 JUMP JUMPDEST CALLVALUE DUP1 ISZERO PUSH2 0x20F JUMPI PUSH1 0x0 DUP1 REVERT JUMPDEST POP PUSH2 0x1EB PUSH2 0x21E CALLDATASIZE PUSH1 0x4 PUSH2 0x639 JUMP JUMPDEST PUSH2 0x3BC JUMP JUMPDEST PUSH2 0x1EB PUSH2 0x490 JUMP JUMPDEST CALLVALUE DUP1 ISZERO PUSH2 0x237 JUMPI PUSH1 0x0 DUP1 REVERT JUMPDEST POP PUSH2 0x1EB PUSH2 0x246 CALLDATASIZE PUSH1 0x4 PUSH2 0x639 JUMP JUMPDEST PUSH2 0x4CD JUMP JUMPDEST PUSH1 0x5 DUP2 DUP2 SLOAD DUP2 LT PUSH2 0x25B JUMPI PUSH1 0x0 DUP1 REVERT JUMPDEST SWAP1 PUSH1 0x0 MSTORE PUSH1 0x20 PUSH1 0x0 KECCAK256 SWAP1 PUSH1 0x5 MUL ADD PUSH1 0x0 SWAP2 POP SWAP1 POP DUP1 PUSH1 0x0 ADD DUP1 SLOAD PUSH2 0x27E SWAP1 PUSH2 0x7C1 JUMP JUMPDEST DUP1 PUSH1 0x1F ADD PUSH1 0x20 DUP1 SWAP2 DIV MUL PUSH1 0x20 ADD PUSH1 0x40 MLOAD SWAP1 DUP2 ADD PUSH1 0x40 MSTORE DUP1 SWAP3 SWAP2 SWAP1 DUP2 DUP2 MSTORE PUSH1 0x20 ADD DUP3 DUP1 SLOAD PUSH2 0x2AA SWAP1 PUSH2 0x7C1 JUMP JUMPDEST DUP1 ISZERO PUSH2 0x2F7 JUMPI DUP1 PUSH1 0x1F LT PUSH2 0x2CC JUMPI PUSH2 0x100 DUP1 DUP4 SLOAD DIV MUL DUP4 MSTORE SWAP2 PUSH1 0x20 ADD SWAP2 PUSH2 0x2F7 JUMP JUMPDEST DUP3 ADD SWAP2 SWAP1 PUSH1 0x0 MSTORE PUSH1 0x20 PUSH1 0x0 KECCAK256 SWAP1 JUMPDEST DUP2 SLOAD DUP2 MSTORE SWAP1 PUSH1 0x1 ADD SWAP1 PUSH1 0x20 ADD DUP1 DUP4 GT PUSH2 0x2DA JUMPI DUP3 SWAP1 SUB PUSH1 0x1F AND DUP3 ADD SWAP2 JUMPDEST POP POP POP POP PUSH1 0x1 DUP4 ADD SLOAD PUSH1 0x2 DUP5 ADD SLOAD PUSH1 0x3 SWAP1 SWAP5 ADD SLOAD SWAP3 SWAP4 SWAP1 SWAP3 PUSH1 0x1 PUSH1 0x1 PUSH1 0xA0 SHL SUB DUP3 AND SWAP3 POP PUSH1 0x1 PUSH1 0xA0 SHL SWAP1 SWAP2 DIV PUSH1 0xFF AND SWAP1 DUP6 JUMP JUMPDEST PUSH1 0x0 SLOAD PUSH1 0x1 PUSH1 0x1 PUSH1 0xA0 SHL SUB AND CALLER EQ PUSH2 0x341 JUMPI PUSH1 0x0 DUP1 REVERT JUMPDEST PUSH1 0x5 DUP1 SLOAD PUSH1 0x1 DUP2 ADD DUP3 SSTORE PUSH1 0x0 DUP3 SWAP1 MSTORE DUP5 MLOAD SWAP2 MUL PUSH32 0x36B6384B5ECA791C62761152D0C79BB0604C104A5FB6F4EB0703F3154BB3DB0 ADD SWAP1 PUSH2 0x387 SWAP1 DUP3 SWAP1 PUSH1 0x20 DUP8 ADD SWAP1 PUSH2 0x564 JUMP JUMPDEST POP PUSH1 0x1 DUP2 ADD SWAP3 SWAP1 SWAP3 SSTORE PUSH1 0x2 DUP3 ADD DUP1 SLOAD PUSH1 0x1 PUSH1 0x1 PUSH1 0xA8 SHL SUB NOT AND PUSH1 0x1 PUSH1 0x1 PUSH1 0xA0 SHL SUB SWAP1 SWAP3 AND SWAP2 SWAP1 SWAP2 OR SWAP1 SSTORE PUSH1 0x0 PUSH1 0x3 SWAP1 SWAP2 ADD SSTORE POP JUMP JUMPDEST PUSH1 0x0 SLOAD PUSH1 0x1 PUSH1 0x1 PUSH1 0xA0 SHL SUB AND CALLER EQ PUSH2 0x3D3 JUMPI PUSH1 0x0 DUP1 REVERT JUMPDEST PUSH1 0x0 PUSH1 0x5 DUP3 DUP2 SLOAD DUP2 LT PUSH2 0x3E8 JUMPI PUSH2 0x3E8 PUSH2 0x7FC JUMP JUMPDEST SWAP1 PUSH1 0x0 MSTORE PUSH1 0x20 PUSH1 0x0 KECCAK256 SWAP1 PUSH1 0x5 MUL ADD SWAP1 POP DUP1 PUSH1 0x2 ADD PUSH1 0x14 SWAP1 SLOAD SWAP1 PUSH2 0x100 EXP SWAP1 DIV PUSH1 0xFF AND ISZERO PUSH2 0x414 JUMPI PUSH1 0x0 DUP1 REVERT JUMPDEST PUSH1 0x0 PUSH1 0x2 PUSH1 0x3 SLOAD PUSH2 0x425 SWAP2 SWAP1 PUSH2 0x812 JUMP JUMPDEST SWAP1 POP DUP1 DUP3 PUSH1 0x3 ADD SLOAD GT PUSH2 0x437 JUMPI PUSH1 0x0 DUP1 REVERT JUMPDEST PUSH1 0x2 DUP3 ADD SLOAD PUSH1 0x1 DUP4 ADD SLOAD PUSH1 0x40 MLOAD PUSH1 0x1 PUSH1 0x1 PUSH1 0xA0 SHL SUB SWAP1 SWAP3 AND SWAP2 DUP2 ISZERO PUSH2 0x8FC MUL SWAP2 SWAP1 PUSH1 0x0 DUP2 DUP2 DUP2 DUP6 DUP9 DUP9 CALL SWAP4 POP POP POP POP ISZERO DUP1 ISZERO PUSH2 0x477 JUMPI RETURNDATASIZE PUSH1 0x0 DUP1 RETURNDATACOPY RETURNDATASIZE PUSH1 0x0 REVERT JUMPDEST POP POP PUSH1 0x2 ADD DUP1 SLOAD PUSH1 0xFF PUSH1 0xA0 SHL NOT AND PUSH1 0x1 PUSH1 0xA0 SHL OR SWAP1 SSTORE POP JUMP JUMPDEST PUSH1 0x1 SLOAD CALLVALUE GT PUSH2 0x49E JUMPI PUSH1 0x0 DUP1 REVERT JUMPDEST CALLER PUSH1 0x0 SWAP1 DUP2 MSTORE PUSH1 0x2 PUSH1 0x20 MSTORE PUSH1 0x40 DUP2 KECCAK256 DUP1 SLOAD PUSH1 0xFF NOT AND PUSH1 0x1 OR SWAP1 SSTORE PUSH1 0x3 DUP1 SLOAD SWAP2 PUSH2 0x4C6 DUP4 PUSH2 0x834 JUMP JUMPDEST SWAP2 SWAP1 POP SSTORE POP JUMP JUMPDEST PUSH1 0x0 PUSH1 0x5 DUP3 DUP2 SLOAD DUP2 LT PUSH2 0x4E2 JUMPI PUSH2 0x4E2 PUSH2 0x7FC JUMP JUMPDEST PUSH1 0x0 SWAP2 DUP3 MSTORE PUSH1 0x20 DUP1 DUP4 KECCAK256 CALLER DUP5 MSTORE PUSH1 0x2 SWAP1 SWAP2 MSTORE PUSH1 0x40 SWAP1 SWAP3 KECCAK256 SLOAD PUSH1 0x5 SWAP1 SWAP2 MUL SWAP1 SWAP2 ADD SWAP2 POP PUSH1 0xFF AND PUSH2 0x510 JUMPI PUSH1 0x0 DUP1 REVERT JUMPDEST CALLER PUSH1 0x0 SWAP1 DUP2 MSTORE PUSH1 0x4 DUP3 ADD PUSH1 0x20 MSTORE PUSH1 0x40 SWAP1 KECCAK256 SLOAD PUSH1 0xFF AND ISZERO PUSH2 0x52F JUMPI PUSH1 0x0 DUP1 REVERT JUMPDEST CALLER PUSH1 0x0 SWAP1 DUP2 MSTORE PUSH1 0x4 DUP3 ADD PUSH1 0x20 MSTORE PUSH1 0x40 DUP2 KECCAK256 DUP1 SLOAD PUSH1 0xFF NOT AND PUSH1 0x1 OR SWAP1 SSTORE PUSH1 0x3 DUP3 ADD DUP1 SLOAD SWAP2 PUSH2 0x55B DUP4 PUSH2 0x834 JUMP JUMPDEST SWAP2 SWAP1 POP SSTORE POP POP POP JUMP JUMPDEST DUP3 DUP1 SLOAD PUSH2 0x570 SWAP1 PUSH2 0x7C1 JUMP JUMPDEST SWAP1 PUSH1 0x0 MSTORE PUSH1 0x20 PUSH1 0x0 KECCAK256 SWAP1 PUSH1 0x1F ADD PUSH1 0x20 SWAP1 DIV DUP2 ADD SWAP3 DUP3 PUSH2 0x592 JUMPI PUSH1 0x0 DUP6 SSTORE PUSH2 0x5D8 JUMP JUMPDEST DUP3 PUSH1 0x1F LT PUSH2 0x5AB JUMPI DUP1 MLOAD PUSH1 0xFF NOT AND DUP4 DUP1 ADD OR DUP6 SSTORE PUSH2 0x5D8 JUMP JUMPDEST DUP3 DUP1 ADD PUSH1 0x1 ADD DUP6 SSTORE DUP3 ISZERO PUSH2 0x5D8 JUMPI SWAP2 DUP3 ADD JUMPDEST DUP3 DUP2 GT ISZERO PUSH2 0x5D8 JUMPI DUP3 MLOAD DUP3 SSTORE SWAP2 PUSH1 0x20 ADD SWAP2 SWAP1 PUSH1 0x1 ADD SWAP1 PUSH2 0x5BD JUMP JUMPDEST POP PUSH2 0x5E4 SWAP3 SWAP2 POP PUSH2 0x5E8 JUMP JUMPDEST POP SWAP1 JUMP JUMPDEST JUMPDEST DUP1 DUP3 GT ISZERO PUSH2 0x5E4 JUMPI PUSH1 0x0 DUP2 SSTORE PUSH1 0x1 ADD PUSH2 0x5E9 JUMP JUMPDEST PUSH1 0x1 PUSH1 0x1 PUSH1 0xA0 SHL SUB DUP2 AND DUP2 EQ PUSH2 0x612 JUMPI PUSH1 0x0 DUP1 REVERT JUMPDEST POP JUMP JUMPDEST PUSH1 0x0 PUSH1 0x20 DUP3 DUP5 SUB SLT ISZERO PUSH2 0x627 JUMPI PUSH1 0x0 DUP1 REVERT JUMPDEST DUP2 CALLDATALOAD PUSH2 0x632 DUP2 PUSH2 0x5FD JUMP JUMPDEST SWAP4 SWAP3 POP POP POP JUMP JUMPDEST PUSH1 0x0 PUSH1 0x20 DUP3 DUP5 SUB SLT ISZERO PUSH2 0x64B JUMPI PUSH1 0x0 DUP1 REVERT JUMPDEST POP CALLDATALOAD SWAP2 SWAP1 POP JUMP JUMPDEST PUSH1 0xA0 DUP2 MSTORE PUSH1 0x0 DUP7 MLOAD DUP1 PUSH1 0xA0 DUP5 ADD MSTORE PUSH1 0x0 JUMPDEST DUP2 DUP2 LT ISZERO PUSH2 0x680 JUMPI PUSH1 0x20 DUP2 DUP11 ADD DUP2 ADD MLOAD PUSH1 0xC0 DUP7 DUP5 ADD ADD MSTORE ADD PUSH2 0x663 JUMP JUMPDEST DUP2 DUP2 GT ISZERO PUSH2 0x692 JUMPI PUSH1 0x0 PUSH1 0xC0 DUP4 DUP7 ADD ADD MSTORE JUMPDEST POP PUSH1 0x20 DUP4 ADD DUP8 SWAP1 MSTORE PUSH1 0x1F ADD PUSH1 0x1F NOT AND DUP3 ADD PUSH1 0xC0 ADD SWAP1 POP PUSH2 0x6BD PUSH1 0x40 DUP4 ADD DUP7 PUSH1 0x1 PUSH1 0x1 PUSH1 0xA0 SHL SUB AND SWAP1 MSTORE JUMP JUMPDEST SWAP3 ISZERO ISZERO PUSH1 0x60 DUP3 ADD MSTORE PUSH1 0x80 ADD MSTORE SWAP4 SWAP3 POP POP POP JUMP JUMPDEST PUSH4 0x4E487B71 PUSH1 0xE0 SHL PUSH1 0x0 MSTORE PUSH1 0x41 PUSH1 0x4 MSTORE PUSH1 0x24 PUSH1 0x0 REVERT JUMPDEST DUP1 CALLDATALOAD PUSH2 0x6F1 DUP2 PUSH2 0x5FD JUMP JUMPDEST SWAP2 SWAP1 POP JUMP JUMPDEST PUSH1 0x0 DUP1 PUSH1 0x0 PUSH1 0x60 DUP5 DUP7 SUB SLT ISZERO PUSH2 0x70B JUMPI PUSH1 0x0 DUP1 REVERT JUMPDEST DUP4 CALLDATALOAD PUSH8 0xFFFFFFFFFFFFFFFF DUP1 DUP3 GT ISZERO PUSH2 0x723 JUMPI PUSH1 0x0 DUP1 REVERT JUMPDEST DUP2 DUP7 ADD SWAP2 POP DUP7 PUSH1 0x1F DUP4 ADD SLT PUSH2 0x737 JUMPI PUSH1 0x0 DUP1 REVERT JUMPDEST DUP2 CALLDATALOAD DUP2 DUP2 GT ISZERO PUSH2 0x749 JUMPI PUSH2 0x749 PUSH2 0x6D0 JUMP JUMPDEST PUSH1 0x40 MLOAD PUSH1 0x1F DUP3 ADD PUSH1 0x1F NOT SWAP1 DUP2 AND PUSH1 0x3F ADD AND DUP2 ADD SWAP1 DUP4 DUP3 GT DUP2 DUP4 LT OR ISZERO PUSH2 0x771 JUMPI PUSH2 0x771 PUSH2 0x6D0 JUMP JUMPDEST DUP2 PUSH1 0x40 MSTORE DUP3 DUP2 MSTORE DUP10 PUSH1 0x20 DUP5 DUP8 ADD ADD GT ISZERO PUSH2 0x78A JUMPI PUSH1 0x0 DUP1 REVERT JUMPDEST DUP3 PUSH1 0x20 DUP7 ADD PUSH1 0x20 DUP4 ADD CALLDATACOPY PUSH1 0x0 PUSH1 0x20 DUP5 DUP4 ADD ADD MSTORE DUP1 SWAP8 POP POP POP POP POP POP PUSH1 0x20 DUP5 ADD CALLDATALOAD SWAP2 POP PUSH2 0x7B8 PUSH1 0x40 DUP6 ADD PUSH2 0x6E6 JUMP JUMPDEST SWAP1 POP SWAP3 POP SWAP3 POP SWAP3 JUMP JUMPDEST PUSH1 0x1 DUP2 DUP2 SHR SWAP1 DUP3 AND DUP1 PUSH2 0x7D5 JUMPI PUSH1 0x7F DUP3 AND SWAP2 POP JUMPDEST PUSH1 0x20 DUP3 LT DUP2 EQ ISZERO PUSH2 0x7F6 JUMPI PUSH4 0x4E487B71 PUSH1 0xE0 SHL PUSH1 0x0 MSTORE PUSH1 0x22 PUSH1 0x4 MSTORE PUSH1 0x24 PUSH1 0x0 REVERT JUMPDEST POP SWAP2 SWAP1 POP JUMP JUMPDEST PUSH4 0x4E487B71 PUSH1 0xE0 SHL PUSH1 0x0 MSTORE PUSH1 0x32 PUSH1 0x4 MSTORE PUSH1 0x24 PUSH1 0x0 REVERT JUMPDEST PUSH1 0x0 DUP3 PUSH2 0x82F JUMPI PUSH4 0x4E487B71 PUSH1 0xE0 SHL PUSH1 0x0 MSTORE PUSH1 0x12 PUSH1 0x4 MSTORE PUSH1 0x24 PUSH1 0x0 REVERT JUMPDEST POP DIV SWAP1 JUMP JUMPDEST PUSH1 0x0 PUSH1 0x0 NOT DUP3 EQ ISZERO PUSH2 0x856 JUMPI PUSH4 0x4E487B71 PUSH1 0xE0 SHL PUSH1 0x0 MSTORE PUSH1 0x11 PUSH1 0x4 MSTORE PUSH1 0x24 PUSH1 0x0 REVERT JUMPDEST POP PUSH1 0x1 ADD SWAP1 JUMP INVALID LOG2 PUSH5 0x6970667358 0x22 SLT KECCAK256 DUP5 DUP6 0x4B 0xE8 SSTORE PUSH8 0x3089B540A752DE11 0x5D 0xD6 MLOAD 0xEE PUSH28 0xA6813AD65DB8B6298573DD257164736F6C634300080C0033A2646970 PUSH7 0x7358221220DB8B 0xDE BALANCE NUMBER EXTCODEHASH DIV PUSH12 0x66578F868620C28210814619 0xDB JUMP MSIZE 0x22 PUSH8 0x99008D584D953E64 PUSH20 0x6F6C634300080C00330000000000000000000000 "},"gasEstimates":{"creation":{"codeDepositCost":"623200","executionCost":"657","totalCost":"623857"},"external":{"campaigns(uint256)":"4581","createCampaign(uint256)":"infinite","emitCampaign(address)":"1724","getCampaigns()":"infinite"}},"methodIdentifiers":{"campaigns(uint256)":"141961bc","createCampaign(uint256)":"a3303a75","emitCampaign(address)":"805ba43e","getCampaigns()":"a6b03633"}},"storageLayout":{"storage":[{"astId":4,"contract":"Campaign.sol:Factory","label":"campaigns","offset":0,"slot":"0","type":"t_array(t_address)dyn_storage"}],"types":{"t_address":{"encoding":"inplace","label":"address","numberOfBytes":"20"},"t_array(t_address)dyn_storage":{"base":"t_address","encoding":"dynamic_array","label":"address[]","numberOfBytes":"32"}}},"userdoc":{"kind":"user","methods":{},"version":1}}